:020000040800F2
:100000004818002045010008DD200008DF20000816
:10001000E9200008ED200008F120000800000000A1
:10002000000000000000000000000000F5200008B3
:10003000F720000800000000F9200008FB2000085D
:100040005F0100085F0100085F0100085F01000810
:100050005F0100085F0100085F010008FD20000843
:100060005F0100085F0100085F0100085F010008F0
:100070005F0100085F0100085F0100085F010008E0
:10008000292100085F0100085F0100085F010008E6
:100090005F0100085F0100085F0100085F010008C0
:1000A0005F0100085F0100085F0100085F010008B0
:1000B0005F0100085F0100085F0100085F010008A0
:1000C0005F0100085F0100085F0100085F01000890
:1000D0005F0100080F2100085F0100085F010008B0
:1000E0005F0100085F0100085F0100085F01000870
:1000F0005F0100085F0100085F0100085F01000860
:100100005F010008312100085F0100085F0100085D
:100110005F0100085F0100085F0100085F0100083F
:100120005F0100085F0100085F0100083921000835
:10013000DFF80CD005F02CFD004800474F1E0008EA
:10014000481800200648804706480047FEE7FEE7BB
:10015000FEE7FEE7FEE7FEE7FEE7FEE7FEE7FEE777
:10016000310200083101000800210020674A1268AE
:1001700042F48032654B1A6000BF644A126802F490
:100180000030491C10B9B1F5A06FF6D15F4A126872
:1001900012F4003F01D0012000E00020012842D1EC
:1001A0005B4A126842F01002594B1A601A461268F4
:1001B00022F003021A601A46126842F002021A6024
:1001C000524A5268514B5A601A4652685A601A464F
:1001D000526842F480625A601A46526822F47C12D5
:1001E0005A601A46526842F4E8125A601A46126877
:1001F00042F080721A6000BF444A126812F0007F19
:10020000FAD0424A526822F00302404B5A601A4622
:10021000526842F002025A6000BF3C4A526802F043
:100220000C02082AF9D1704710B5FFF79DFF10BDE9
:1002300010B53648006840F00100344908600846AF
:1002400040683449084031494860084600683249EE
:1002500008402E4908600846006820F480200860A5
:100260000846406820F4FE0048604FF41F00886094
:10027000FFF7DAFF4FF000602849086010BD10B5A5
:10028000002100200022214B5B6803F00C0121B10A
:10029000042906D0082928D107E0214B214C2360EE
:1002A00027E01F4B1F4C236023E0184B5B6803F4CF
:1002B0007010164B5B6803F48032022303EB90400E
:1002C00022B9194B4343174C23600DE00F4B5B6879
:1002D00013F4003F04D0144B4343124C236003E05B
:1002E0000F4B43430F4C236003E00D4B0D4C236039
:1002F00000BF00BF054B5B68C3F303130B4CE15C0D
:10030000084B1B68CB40074C236010BD0010024017
:10031000002002400000FFF8FFFFF6FE08ED00E0BD
:1003200000127A000000002000093D0004000020B7
:1003300036490143364A1160704770B500210023E9
:100340000F22C4784CB3324C246804F4E064C4F542
:10035000E0644FEA1421C1F1040322FA01F2447867
:1003600004FA03F1847804EA020444EA01014FEA42
:100370000111284C0678A155047804F01F054FF0B0
:10038000010404FA05F405784FEA65154FF0E026FC
:1003900006EB8505C5F8004109E0047804F01F0567
:1003A0000124AC401C4D0678761145F8264070BDFE
:1003B0001A4A0A4002431A4B1A60704741B1194A5F
:1003C000126842EA00024FF0E023C3F8102D07E064
:1003D000144A126822EA00024FF0E023C3F8102DFD
:1003E0007047042808D14FF0E021096941F0040169
:1003F0004FF0E022116107E04FF0E021096921F0A0
:1004000004014FF0E0221161704700000000FA057E
:100410000CED00E000E400E080E100E080FFFF1F61
:1004200008ED00E010ED00E001684FF6FE721140AB
:1004300001600021016041608160C160874988429C
:1004400008D186490839496841F00F01834A083AC2
:10045000516088E081491431884208D17F490839C8
:10046000496841F0F0017D4A083A51607BE07B49E0
:100470002831884208D179490839496841F47061C6
:10048000764A083A51606EE074493C31884208D19E
:1004900072490839496841F47041704A083A51601C
:1004A00061E06E495031884208D16C490839496889
:1004B00041F47021694A083A516054E06749643157
:1004C000884208D165490839496841F47001634A96
:1004D000083A516047E061497831884208D15F4964
:1004E0000839496841F070615C4A083A51603AE065
:1004F0005B49884208D1A0F10401096841F00F016D
:10050000584AC2F804142EE055491431884207D1E4
:100510005549096841F0F001524AC2F8041422E03A
:100520004F492831884207D14F49096841F4706129
:100530004C4AC2F8041416E049493C31884207D1BC
:100540004949096841F47041464AC2F804140AE076
:1005500043495031884206D14349096841F470212A
:10056000404AC2F80414704710B50022026847F6EA
:10057000F0739A430C6A8B6823430C6923434C69DC
:1005800023438C692343CC6923434C6A23438C6AFD
:1005900023431A430260CB6843600B6883604B6857
:1005A000C36010BD0021016041608160C1600161D4
:1005B00041618161C161016241628162704721B123
:1005C000026842F00102026004E002684FF6FE7326
:1005D0001A40026070471AB103680B43036002E0DF
:1005E00003688B4303607047416070470146486869
:1005F00080B2704701460020002211F0805F02D0D7
:100600001A4B1A6801E0174B1A680A4201D0012000
:1006100000E00020704710F0805F02D012490860AF
:1006200001E010494860704701460020002211F0A7
:10063000805F02D00D4B1A6801E00A4B1A680A422B
:1006400001D0012000E00020704710F0805F02D050
:100650000549086001E0034948607047080002400E
:10066000080402400000024004040240000402406A
:100670000020474908604749C1F80404464908601A
:1006800001F10401086045484549086070470021B0
:100690003F498279DAB33F4AD2F8002403689A438B
:1006A0003C4BC3F800241A46D2F8042403689A434A
:1006B00001F104031A60027911440A68036842EAEE
:1006C00003020A60334AD2F80824036822EA0302CC
:1006D000304BC3F808241A46D2F80C24036822EAE7
:1006E0000302304B1A604279102A11D1294AD2F8FC
:1006F000082403681A43274BC3F808241A46D2F883
:100700000C2403681A43234BC3F80C240EE007E0C3
:100710001F49427911440A6803681A430A6005E0D8
:10072000027911440A6803689A430A6070470021FD
:10073000016001710C2141710021817170471A49DA
:10074000096841EA0001134AC2F8101470470146D3
:100750000020134A12680A4201D0012000E0002064
:1007600070470F4908607047014600200022084B7F
:100770001B6803EA0102074BD3F814340B4202D082
:100780000AB1012000E00020704705490860704769
:10079000000401400000014008040140FFFF0F0079
:1007A000140401400C0401401004014001460020E3
:1007B000FF4A106800F03800084310607047FC4999
:1007C000096821F00801FA4A1160114609680143DD
:1007D00011607047F649096821F01001F44A116070
:1007E00011460968014311607047F248F0494860BA
:1007F000F14848607047EF48ED494860EE4848606E
:100800007047EB48006940F08000E9490861704793
:10081000E748006940F08000E5490861704704201E
:10082000E349C96801F00101012901D101200EE06D
:10083000DF49C96811F0040F01D0022007E0DC494C
:10084000C96811F0100F01D0032000E004207047A8
:1008500000B502460423FFF7E2FF034603E0FFF77B
:10086000DEFF0346521E012B01D1002AF7D102B947
:100870000523184600BD30B5044604254FF430204A
:10088000FFF7E6FF0546042D17D1C948006940F07F
:100890000200C749086108464461006940F0400011
:1008A00008614FF43020FFF7D3FF0546C0480069C8
:1008B00041F6FD710840BE490861284630BD10B5BB
:1008C00004244FF43020FFF7C3FF0446042C16D154
:1008D000B748006940F00400B5490861084600695E
:1008E00040F0400008614FF43020FFF7B1FF0446AC
:1008F000AF48006941F6FB710840AD4908612046E8
:1009000010BD00B502460423FFF789FF034603E04C
:10091000FFF785FF0346521E012B01D1002AF7D1B4
:1009200002B90523184600BD10B504244FF4302049
:10093000FFF7E7FF0446042C16D19D48006940F0FC
:1009400004009B4908610846006940F040000861C6
:100950004FF43020FFF7D5FF04469548006941F673
:10096000FB71084092490861204610BD0020904963
:10097000C96911F0020F01D0012000E0002070478A
:1009800030B5A5250424FFF7F1FF00B100254FF491
:100990003020FFF75DFF0446042C3BD18548844995
:1009A0008860854888600846006940F0200008613A
:1009B0000846006940F0400008614FF43020FFF71E
:1009C00047FF0446042C1CD17948006941F6DF71C9
:1009D0000840774908610846006940F01000086146
:1009E000764805804FF40050FFF732FF0446052C8F
:1009F00010D06F48006941F6EF7108406C490861FA
:100A000008E0052C06D06A48006941F6EF710840FD
:100A100067490861204630BDF0B504460D460426FE
:100A20000027F002FFF714FF0646042E22D160488B
:100A3000006940F001005E4908612580F002FFF77F
:100A400007FF0646042E0ED1A71C280C3880F002A2
:100A5000FFF7FEFE06465648006941F6FE71084063
:100A60005349086106E05248006941F6FE710840AA
:100A70004F4908613046F0BD70B504460D46042666
:100A8000F002FFF7E5FE0646042E11D14848006942
:100A900040F00100464908612580F002FFF7D8FECA
:100AA00006464348006941F6FE7108404049086126
:100AB000304670BD70B505460E460424E002FFF7CF
:100AC000C7FE0446042C17D13A48394988603A4891
:100AD00088600846006940F0100008612E80E0023E
:100AE000FFF7B6FE0446052C06D03148006941F6F2
:100AF000EF7108402E490861204670BD2DE9F04392
:100B000004464FF6FF763746B046B1460425E44327
:100B1000E6B2C4F30727C4F307484FEA1469E802B2
:100B2000FFF796FE0546042D3ED1224820498860F5
:100B3000214888600846006940F010000861FF2ED7
:100B400006D01F4806804FF40050FFF781FE05468F
:100B5000042D08D1FF2F06D01A4807804FF400500B
:100B6000FFF776FE0546042D09D1B8F1FF0F06D038
:100B70001548A0F80C88E802FFF76AFE0546042D28
:100B800009D1B9F1FF0F06D00F48A0F80E98E8027E
:100B9000FFF75EFE0546052D06D00548006941F6C3
:100BA000EF710840024908612846BDE8F083000063
:100BB0000020024023016745AB89EFCD00F8FF1FFD
:100BC00008F8FF1F0AF8FF1F00F0FF1F30B50546A9
:100BD00004244FF43020FFF73BFE0446042C41D19F
:100BE0005F4860498860604888600846006940F056
:100BF000200008610846006940F0400008614FF499
:100C00003020FFF725FE0446042C22D15548006908
:100C100041F6DF710840534908610846006940F019
:100C2000100008611DB100205049088002E0A52095
:100C30004E4908804FF43020FFF70AFE0446052C89
:100C400010D04848006941F6EF71084045490861F5
:100C500008E0052C06D04348006941F6DF710840E2
:100C600040490861204630BDF0B505460E4617469E
:100C700004243B483B4988603B488860E002FFF71A
:100C8000E7FD0446042C19D13648006940F01000F5
:100C90003449086147F0F80030432843344908805C
:100CA0004FF40050FFF7D4FD0446052C06D02D4824
:100CB000006941F6EF7108402A4908612046F0BDFD
:100CC0002848C069800870472648006A704700209D
:100CD0002449096811F0200F01D0012000E0002014
:100CE000704729B11F4A126902431E4B1A6104E082
:100CF0001C4A126982431B4B1A617047014600204F
:100D0000012908D1174AD26912F0010F01D0012040
:100D100008E0002006E0134AD2680A4201D0012010
:100D200000E0002070470F49C860704704200D495B
:100D3000C96801F00101012901D101200EE0094932
:100D4000C96811F0040F01D0022007E00549C96805
:100D500011F0100F01D0032000E0042070470000C4
:100D60002301674500200240AB89EFCD00F8FF1F4B
:100D700002F8FF1F10B50446CA48844208D1012179
:100D8000042000F01CFD0021042000F018FD46E0C6
:100D9000C548844208D10121082000F010FD00213F
:100DA000082000F00CFD3AE0C048844208D101213F
:100DB000102000F004FD0021102000F000FD2EE0C6
:100DC000BB48844208D10121202000F0F8FC00211A
:100DD000202000F0F4FC22E0B648844208D1012132
:100DE000402000F0ECFC0021402000F0E8FC16E080
:100DF000B148844208D10121802000F0E0FC0021AC
:100E0000802000F0DCFC0AE0AC48844207D10121DC
:100E1000801500F0D4FC0021A01500F0D0FC10BD1E
:100E200010B50121084600F0CAFC0021012000F0A5
:100E3000C6FC10BD2DE9F041024600250026002029
:100E400000230024002791F803C00CF00F0591F84F
:100E500003C01CF0100F03D091F802C04CEA050546
:100E6000B1F800C01CF0FF0F31D0146800202BE057
:100E70004FF0010C0CFA00F3B1F800C00CEA0306C5
:100E80009E4220D183004FF00F0C0CFA03F7BC43B5
:100E900005FA03FC4CEA040491F803C0BCF1280FE6
:100EA00006D14FF0010C0CFA00FCC2F814C00AE0A5
:100EB00091F803C0BCF1480F05D14FF0010C0CFABA
:100EC00000FCC2F810C0401C0828D1D31460B1F84F
:100ED00000C0BCF1FF0F34DD546800202EE000F1AB
:100EE000080C4FF0010808FA0CF3B1F800C00CEA46
:100EF00003069E4221D183004FF00F0C0CFA03F73A
:100F0000BC4305FA03FC4CEA040491F803C0BCF1AD
:100F1000280F05D100F1080C08FA0CF8C2F814806B
:100F200091F803C0BCF1480F07D100F1080C4FF055
:100F3000010808FA0CF8C2F81080401C0828CED32B
:100F40005460BDE8F0814FF6FF710180022181708D
:100F50000421C17070470246002093680B4201D003
:100F6000012000E0002070470146886880B2704789
:100F700002460020D3680B4201D0012000E000208F
:100F800070470146C86880B270470161704741618F
:100F900070470AB1016100E041617047C16070476C
:100FA0004FF480320A438261816182618269826981
:100FB000704702460020424B18684FF68073184075
:100FC00040EA021008433E4B186070473D49C86133
:100FD0007047F0B50A46002300240021002500F0E8
:100FE0000046B6F1004F02D1354EF16901E0344EB2
:100FF0007168C0F3034583B200F44016B6F5401F94
:1010000008D121F070612E4E766826F070662C4F64
:101010007E6012E000F48016B6F5801F06D103262C
:1010200006FA05F4A14341F0706106E0460D360171
:1010300003FA06F6B14341F0706122B1460D360164
:1010400003FA06F6314300F00046B6F1004F02D134
:101050001B4EF16101E01A4E7160F0BD30B5002207
:101060008B071C0F0F2303FA04F2154B08338C1067
:1010700053F824309343124C08348D1044F8253033
:1010800023468C1053F824308C07240F00FA04F404
:1010900023430B4C08348D1044F8253030BD0A49E9
:1010A0000860704700080140000C0140001001403A
:1010B0000014014000180140001C014000200140C4
:1010C0000000014000002042DC00204210B5044630
:1010D000F648844209D10121480500F07DFB00213A
:1010E0004FF4001000F078FB08E00121880500F0C3
:1010F00073FB00214FF4800000F06EFB10BD2DE962
:10110000F04385B004460D460026B1460427DFF8BB
:10111000A083A6884FF6C0710E40684600F0C8FA5A
:10112000DDF80880E348B8FBF0F01FFA80F946EAE2
:101130000906A68020884FF6FE7108402080002610
:10114000DD49286888420CD828684000B8FBF0F0D8
:1011500087B2042F00DA04273E4309F101002084FE
:1011600027E0E888A0F53F41FF3906D1286800EB69
:101170004000B8FBF0F087B209E0286800EBC0013E
:1011800001EB0010B8FBF0F087B247F48047380558
:10119000000D01D147F0010747F4004006434FF42A
:1011A000967009FB00F04FF47A7190FBF1F0401C4F
:1011B0002084A683208840F00100208026884FF6F6
:1011C000F5310E40A8886989084306432680A8891E
:1011D00029890843208105B0BDE8F08341F28831B8
:1011E0000160002181804BF6FF71C18000210181E7
:1011F00041814FF480418181704721B1028842F0E2
:101200000102028004E002884FF6FE731A40028059
:10121000704721B1828842F40062828004E08288B3
:101220004FF2FF731A408280704721B1828842F4E6
:101230008052828004E082884EF6FF731A408280DA
:10124000704721B1028842F48072028004E0028873
:101250004FF6FF631A400280704721B1028842F4C2
:101260000072028004E002884FF6FF531A400280A9
:10127000704721B1028842F48062028004E0028853
:101280004FF6FF331A40028070470A4600218189D9
:101290004FF60173194002F0FE0319438181704734
:1012A00021B1828942F00102828104E082894FF6F5
:1012B000FE731A408281704721B1028842F04002D9
:1012C000028004E002884FF6BF731A400280704724
:1012D00010B51AB183880B43838004E08388CC4324
:1012E000A4B22340838010BD018270470146088A62
:1012F000C0B2704712B141F0010102E04FF6FE7337
:101300001940018270470246002313460B44188897
:10131000704721B1028842F40042028003E0028853
:10132000C2F30E0202807047B1F5006F04D102884B
:1013300042F40062028004E002884FF2FF731A4018
:1013400002807047B1F5005F04D1028842F4005278
:10135000028004E002884DF6FF731A400280704755
:1013600021B1028842F48052028004E002884EF6E5
:10137000FF731A4002807047B1F5006F04D10288F4
:1013800042F40062028004E002884FF2FF731A40C8
:101390000280704721B1028842F02002028004E0FE
:1013A00002884FF6DF731A40028070470146088BAF
:1013B0000012704721B1028842F01002028004E05E
:1013C00002884FF6EF731A400280704721B90288F5
:1013D00042F08002028004E002884FF67F731A40D8
:1013E00002807047B1F5804F05D0828B4BF6FF73BA
:1013F0001A40828303E0828B42F4804282837047EA
:1014000070B502460024002500230020958A138B26
:101410001B0445EA030626F07F4404EA01068E42D7
:1014200001D1012000E0002070BD10B50146002070
:10143000002300228B8A0A8B120443EA020424F060
:101440007F4010BD30B503460020002400221A461C
:101450000C0F21F07F410CB1143201E0090C18325D
:1014600015680D4201D0012000E0002030BD0022AF
:1014700021F07F42D3438382704730B5024600207B
:101480000023948801F0E06504EA154321F07F41D0
:10149000948A0C4202D00BB1012000E0002030BD44
:1014A000002221F07F42D3438382704700540040E2
:1014B00000127A0040420F00A0860100DB4800685D
:1014C00040F00100D949086008464068D849084002
:1014D000D649486008460068D6490840D3490860A4
:1014E0000846006820F4802008600846406820F420
:1014F000FE0048604FF41F0088607047CB490968C0
:1015000021F48031C94A11601146096821F4802113
:101510001160B0F5803F03D0B0F5802F0ED106E00A
:10152000C249096841F48031C04A116007E0BF49EF
:10153000096841F4A021BD4A116000E000BF00BF6E
:10154000704710B501460022002300204A11012AED
:1015500002D1B64C236806E0022A02D1B34C236ABA
:1015600001E0B24C636A01F01F02012494401C4266
:1015700001D0012000E0002010BD70B5002400253E
:10158000002600BF3120FFF7DCFF0646641CB4F5DF
:10159000A06F01D0002EF5D03120FFF7D2FF08B1A7
:1015A000012500E00025284670BD014600209F4A25
:1015B000106820F0F80040EAC100106070479E49B2
:1015C0000860704702460020984B586820F47C1051
:1015D00042EA01031843954B5860704796490866E4
:1015E000704701460020914A506820F003000843EC
:1015F000506070478D48406800F00C00704701460D
:1016000000208A4A506820F0F0000843506070477C
:1016100001460020854A506820F4E060084350608D
:10162000704701460020814A506820F4605040EA2B
:10163000C1005060704729B17C4A527A02437B4B0B
:101640005A7206E0794A527AC343DBB21A40774BAA
:101650005A72704779490860704701460020734A02
:10166000506820F440400843506070470021744A9D
:1016700011706E4A82F82010012802D0042808D187
:1016800003E001216E4A117004E005216C4A1170DB
:1016900000E000BF00BF70476A49086070476349B7
:1016A000096A0143614A11627047674908607047DF
:1016B00030B500210022002400235C4D6D6805F048
:1016C0000C0121B1042905D0082923D105E05F4D83
:1016D000056022E05D4D05601FE0544D6D6805F426
:1016E0007012524D6D6805F48034022505EB92426C
:1016F0001CB9574D554305600BE04C4D6D6815F412
:10170000003F03D0524D5543056002E04F4D554315
:10171000056002E04D4D056000BF00BF434D6D68A0
:1017200005F0F00109094B4D6B5C0568DD40456033
:101730003E4D6D6805F4E061090A464D6B5C4568F5
:10174000DD408560394D6D6805F46051C90A414D31
:101750006B5C4568DD40C560344D6D6805F4404103
:10176000890B3D4D6B5CC568B5FBF3F5056130BD7C
:1017700029B12E4A526902432C4B5A6104E02B4A8C
:1017800052698243294B5A61704729B1274A9269AD
:101790000243264B9A6104E0244A92698243234B18
:1017A0009A61704729B1214AD26902431F4BDA611D
:1017B00004E01E4AD26982431C4BDA61704729B1AA
:1017C0001A4AD2680243194BDA6004E0174AD26819
:1017D0008243164BDA60704729B1144A12690243FA
:1017E000124B1A6104E0114A126982430F4B1A61CD
:1017F00070471A49086070470F49C86470470B4921
:10180000C87170470948406A40F0807007494862D3
:10181000704701460020054A92680A4201D0012023
:1018200000E00020704701498872704700100240B4
:101830000000FFF8FFFFF6FE00004242D8004242DF
:1018400020100240800442423C04424200127A00CE
:1018500000093D0014000020240000204004424202
:1018600000206849086048608860C86048628862F3
:10187000C862654888630020C86370470021614AD8
:10188000516847F6FF629143027D83681A434368BB
:101890001A43C3681A4303681A4303691A4311437E
:1018A000584A5160704700210175016041608160B4
:1018B000C160016170475549086070475149096826
:1018C00021F003014F4A116011460968014311607C
:1018D00070474C48006800F00300704729B1494A3E
:1018E000D26B0243474BDA6304E0464AD26B824331
:1018F000444BDA6370474649086070470021414B0A
:1019000002689A601A46D1686FF30A01D0E9012390
:101910001A43C3681A4303691A431143394AD16011
:1019200070470021016041608160C16001617047C2
:1019300034480069C0B27047014600223148143073
:101940000A181068704700212E4B02685A624268DC
:101950009A621A46D16A21F0F701D0E902231A43AC
:1019600003691A4343691A431143264AD1627047F7
:101970004FF0FF310160002141608160C160016171
:10198000416170471F48006B7047224800687047EC
:101990002049086070471B48806C70471E490860EA
:1019A00070471E49086070471D49086070471D490F
:1019B000086070471C49086070471C490860704700
:1019C000012181431A4A116070471A490860704723
:1019D000014600200B4A526B0A4201D0012000E070
:1019E0000020704707498863704701460020054A78
:1019F000526B0A4201D0012000E0002070470149EB
:101A00008863704700800140FF07C000A00030429B
:101A10008C05304280800140A0053042A405304250
:101A2000A8053042AC053042AC013042B001304232
:101A3000B4013042B801304210B50446FC4884423B
:101A400009D101218803FFF7BAFE00214FF480403D
:101A5000FFF7B5FE32E0F748844209D1012148047E
:101A6000FFF7BAFE00214FF40030FFF7B5FE25E086
:101A7000F148844209D101218804FFF7ADFE00211D
:101A80004FF48020FFF7A8FE18E0EC48844209D10B
:101A90000121C804FFF7A0FE00214FF40020FFF74A
:101AA0009BFE0BE0E648844208D101210805FFF7C0
:101AB00093FE00214FF48010FFF78EFE10BD2DE93C
:101AC000F04786B005460E460024A24600BFA14658
:101AD0000027B08900B100BF2F462C8A4CF6FF705A
:101AE0000440F08804432C82AC894EF6F310044085
:101AF000B08831890843718908430443AC81AC8ABA
:101B00004FF6FF400440B0890443AC8201A8FFF7C0
:101B1000CFFDC748874202D1DDF810A001E0DDF813
:101B20000CA0A88910F4004F08D00AEBCA0000EB03
:101B30000A1031684900B0FBF1F807E00AEBCA006F
:101B400000EB0A1031688900B0FBF1F86420B8FBA3
:101B5000F0F004012009642101FB1089A88910F428
:101B6000004F08D0322000EBC900B0FBF1F000F0CC
:101B70000700044308E0322000EB09106421B0FBA9
:101B8000F1F000F00F0004432C8106B0BDE8F087AF
:101B90004FF41651016000218180C18001810C2128
:101BA000418100218181704710B502460020108AD2
:101BB0004FF2FF0318400B884C8823438C88234343
:101BC000CC8823431843108210BD0021018041803E
:101BD0008180C180704721B1828942F400528281A4
:101BE00004E082894DF6FF731A4082817047F0B598
:101BF00003460024002600250020A1F510676A3F57
:101C000000D100BF1846C1F3421401F01F0601279E
:101C100007FA06F5012C01D10C3004E0022C01D1A9
:101C2000103000E014301AB107682F43076002E05B
:101C30000768AF430760F0BD10B51AB1838A0B4344
:101C4000838204E0838ACC43A4B22340838210BD04
:101C5000028A4FF6F0731A400282028A0A43028215
:101C6000704782894FF2FF731A40828182890A434A
:101C70008281704721B1828942F00202828104E0B0
:101C800082894FF6FD731A4082817047028A4FF6AF
:101C9000DF731A400282028A0A430282704721B12E
:101CA000028A42F48042028204E0028A4BF6FF7309
:101CB0001A4002827047C1F30802828070470146D1
:101CC0008888C0F308007047818941F00101818153
:101CD0007047028BD2B20283028B42EA0122028356
:101CE0007047028B02F47F420283028B0A43028315
:101CF000704721B1828A42F02002828204E0828A07
:101D00004FF6DF731A408282704721B1828A42F017
:101D10001002828204E0828A4FF6EF731A408282B8
:101D2000704721B1828A42F00802828204E0828AEE
:101D30004FF6F7731A408282704721B1828942F4CC
:101D40000042828103E08289C2F30E0282817047E1
:101D500021B1828A42F40062828204E0828A4FF2D8
:101D6000FF731A4082827047828A4FF6FB731A40D3
:101D70008282828A0A438282704721B1828A42F03B
:101D80000202828204E0828A4FF6FD731A40828248
:101D9000704702460020B1F5007F00D100BF1388D4
:101DA0000B4201D0012000E00020704701F40072D6
:101DB000B2F5007F00D100BFCA430280704770B502
:101DC00002460024002300250020A1F510666A3E8B
:101DD00000D100BFC1F3421501F01F03012606FA2E
:101DE00003F3012D02D19689334006E0022D02D182
:101DF000168A334001E0968A33400C12012606FA17
:101E000004F41688344013B10CB1012000E0002026
:101E100070BD10B500220023A1F510646A3C00D10A
:101E200000BF0A1201249440A3B2DC43048010BD19
:101E3000003801400044004000480040004C004091
:101E40000050004000E0401E0028FCD1704700F028
:101E500083F902F02BFA02F026F800BFFEE7F2B099
:101E600000BF00206E906F90709071906A906B90A0
:101E70006C906D90002402F0E3FA4449016002F096
:101E8000DFFA4349416010A802F02AFB0BA802F0D8
:101E900065FF79E03F48007858B110AB4FF480728D
:101EA0003D490BA803F0D6F800203A4908700124F8
:101EB0000DE03A48007850B110AB4FF480723849C9
:101EC0000BA803F0C7F80020344908700124F4B3CC
:101ED0000123082204A911A802F007F807A90EC9D6
:101EE0008DE80E00DDE90503421C049800F26C71D8
:101EF0002CA004F099F8DDE92201CDE90001DDE92B
:101F000020532A462EA004F08FF810A8426F34A068
:101F10002C9904F089F8DDE924532A463EA004F008
:101F200083F8DDE926532A4645A004F07DF8DDE973
:101F300028532A4647A004F077F86EA802F048FA22
:101F40004AA004F071F8BDF9B8114CA000E01BE004
:101F500004F06AF8BDF9BA114CA004F065F8BDF9B7
:101F6000BC114EA004F060F8BDF9BE114FA004F002
:101F70005BF8BDF9C01151A004F056F8BDF9C211CB
:101F800052A004F051F8002484E70000B33E00089A
:101F9000B53E00084200002043020020410000201E
:101FA000430300200D0A2054696D653A25642C25F1
:101FB000642C25642C25642C25642C25640D0A00D2
:101FC0000D0A204C617469747564653A25662C4C61
:101FD0006F6E677469747564653A25660D0A000052
:101FE0000D0A204E756D62657273206F6620536115
:101FF0007420696E207573653A25642C204E756DCA
:1020000062657273206F662053617420696E20765A
:102010006965773A256400000D0A204E756D62658A
:102020007273206F66206D65746572732061626FD4
:10203000766520686F72697A6F6E3A2025660000B7
:102040000D0A2053706565643A202566206B6D2F5C
:10205000682000000D0A20446972656374696F6E20
:102060003A20256620646567726565000D0A4D504B
:10207000552052656164696E67733A000D0A494DD7
:10208000555B305D3A202531306400000920494D10
:10209000555B315D3A202531306400000920494DFF
:1020A000555B325D3A202531306400000920494DEE
:1020B000555B335D3A202531306400000920494DDD
:1020C000555B345D3A202531306400000920494DCC
:1020D000555B355D3A20253130640000704718A00B
:1020E00003F0A2FF00BFFEE700BFFEE700BFFEE770
:1020F00000BFFEE7704770477047704710B5022079
:10210000FEF732FB10B10220FEF73FFB10BD10B509
:1021100040F225510F48FFF752FE20B140F2255101
:102120000C48FFF776FE10BD10B501F070FE10BD33
:1021300010B501F0B8FC10BD10B501F005FD10BDE3
:102140000D0A20686172646661756C742065727234
:102150000D0A00000038014000B587B0012144F2AB
:102160000400FFF712FB4FF40070ADF818001820C0
:102170008DF81B0003208DF81A0006A92848FEF7E9
:1021800059FE4FF48060ADF8180004208DF81B0054
:1021900006A92348FEF74EFE25208DF804000320F3
:1021A0008DF805008DF8060001208DF8070001A8C4
:1021B000FEF7C3F84FF4165002900020ADF80C0063
:1021C000ADF80E00ADF81000ADF814000C20ADF81D
:1021D000120002A91348FFF772FC01211148FFF712
:1021E000FAFC07B000BD70B504460D46E1B20D48DB
:1021F000FFF761FD00BF80210A48FFF7CAFD0028F4
:10220000F9D0204670BD10B5044600BF2021054816
:10221000FFF7BFFD0028F9D00248FFF750FD10BDC1
:10222000000801400038014008B54FF4E060FEF7B7
:102230007FF831208DF8000000208DF801008DF826
:10224000020001208DF803006846FEF776F83B2077
:102250008DF8000000208DF801006846FEF76DF84B
:1022600008BD08B50020FFF726FB0020FFF726FB7E
:10227000FFF7F6FA00214FF48060FFF779FA4FF488
:10228000F850ADF8000004208DF803006946FC48C2
:10229000FEF7D0FD0420ADF800006946F948FEF7CE
:1022A000C9FD08BD08B50121B020FFF76EFA4FF453
:1022B000F850ADF8000003208DF8020018208DF8CA
:1022C00003006946EE48FEF7B5FD0420ADF80000B6
:1022D0006946EC48FEF7AEFD4FF40060ADF8000033
:1022E00048208DF803006946E748FEF7A3FD012169
:1022F0008802FFF73DFA01210220FFF739FA08BDF5
:1023000030B58BB005460C46E048FEF784F9002155
:10231000DF48FEF754F9DF48009001951020029045
:10232000A008039000200490802005908000069073
:1023300080000790002008904FF400500990002082
:102340000A906946D248FEF70FF901220221D048CF
:10235000FEF741F90121CE48FEF731F90BB030BD4F
:1023600030B58BB005460C46C848FEF754F900213D
:10237000C748FEF724F9C748009001950020029055
:10238000A008039000200490802005908000069013
:1023900080000790002008904FF400500990002022
:1023A0000A906946BA48FEF7DFF801220221B848D0
:1023B000FEF711F90121B648FEF701F90BB030BD67
:1023C00010B5B548FEF716F910BD10B5FFF749FF77
:1023D00010BD2DE9F04106460027AE488038456B18
:1023E00002E0AC488038456B15F0450FF9D015F088
:1023F000040F06D003270420FFF7F4FA3846BDE89F
:10240000F08115F0010F05D001270120FFF7EAFA4E
:102410003846F4E7FFF78CFAB04202D0102738466E
:10242000EDE740F2FF50FFF7DDFA0020FFF784FAF6
:1024300004469A48044201D13846E0E714F0004FC0
:1024400001D01C20DBE714F0804F01D00920D6E733
:1024500014F0005F01D00A20D1E714F0805F01D0B2
:102460000B20CCE714F0006F01D00C20C7E714F06C
:10247000806F01D00D20C2E714F0807F01D00E20C4
:10248000BDE714F4000F01D00F20B8E714F4800F5B
:1024900001D01020B3E714F4001F01D01120AEE7E3
:1024A00014F4801F01D01220A9E714F4002F01D0EA
:1024B0001320A4E714F4802F01D014209FE714F414
:1024C000003F01D015209AE714F4803F01D0162078
:1024D00095E714F4004F01D0172090E714F4804FD3
:1024E00001D018208BE714F4005F01D0192086E793
:1024F00014F0080F01D01A2081E738467FE72DE954
:10250000FC4107460D460026002400200090019063
:10251000082063490860102048604020886000203F
:10252000C8604FF4806008610846FFF7E7F91020A3
:10253000FFF74FFF044614B12046BDE8FC8159481F
:1025400000680004564908603720486040208860D1
:102550000020C8604FF4806008610846FFF7CEF99C
:102560003720FFF736FF04460CB12046E5E74AF670
:10257000FF704D49086008204860302088600220C4
:10258000C86000200861012048610846FFF7DBF9B8
:1025900000204349086033204860402088600020C4
:1025A000C8604FF4806008610846FFF7A7F9332040
:1025B000FFF70FFF04460CB12046BEE709E04FF4D9
:1025C0000010FFF705FA20B1FFF7DFF94DF82600FC
:1025D000761C30488038406B40F22A610842EED0C9
:1025E0000820FFF7F5F928B10820FFF7FBF90424CC
:1025F0002046A2E70220FFF7EBF928B10220FFF7FF
:10260000F1F90224204698E72020FFF7E1F928B1EC
:102610002020FFF7E7F9062420468EE74FF40070EC
:10262000FFF7D6F930B14FF40070FFF7DBF907245C
:10263000204682E740F2FF50FFF7D4F900980006E9
:10264000009901F47F4140EA0120009901F47F01E3
:1026500040EA1120009940EA116068600198000684
:10266000019901F47F4140EA0120019901F47F01C1
:1026700040EA1120019940EA1160286020465CE799
:102680000010014000140140001C014000F0001047
:1026900044040240808001400020001008E0FFFD5B
:1026A000180100202C0000202C0100207CB50546DC
:1026B0000024002000900190FFF73EF910F0007F09
:1026C00002D00E2420467CBD6946FF48006880B2D7
:1026D000FFF715FF04460CB12046F4E7012D35D174
:1026E000019810F4802F2ED0F74800680004F749B5
:1026F000086037204860402088600020C860A80239
:1027000008610846FFF7FAF83720FFF762FE044633
:102710000CB12046D7E70220EC490860062048604B
:10272000402088600020C8604FF48060086108463F
:10273000FFF7E4F80620FFF74CFE04460CB12046F4
:10274000C1E72046BFE725242046BCE7019810F4E6
:10275000803F2FD0DC4800680004DC490860372047
:102760004860402088600020C8604FF480600861A5
:102770000846FFF7C3F83720FFF72BFE04460CB1DD
:102780002046A0E70020D14908600620486040208C
:1027900088600020C8604FF4806008610846FFF739
:1027A000ADF80620FFF715FE04460CB120468AE777
:1027B000204688E72524204685E770B50446002595
:1027C000C3480068032802D12725284670BDC048A9
:1027D000006838B1BE480068012803D0BC480068D2
:1027E00002282ED1B4F5805F02D127252846EDE7D7
:1027F000B4F5006F14D10120FFF758FF054605BB63
:102800000120B449087500200860486088604FF4D2
:102810000060C860002008610846FFF72FF810E04C
:102820000020FFF743FF05465DB90120A94908755F
:102830000020086048608860C86008610846FFF7AB
:102840001DF82846C2E770B5044600259F4804607D
:1028500007209E494860402088600020C8604FF4EF
:10286000806008610846FFF749F80720FFF7B1FDCF
:102870000546284670BDF0B5014600200022944B65
:102880001B6881F85630904B1B68A1F85430924B6E
:102890001B681A0E93090B70C2F383034B7002F08E
:1028A00003038B708C4B1B68C3F30742CA708A4BBF
:1028B0001B68C3F307220A71874B1B68DAB24A719F
:1028C000854B5B681A0E1301CB80834B5B68C3F3A7
:1028D0000742CB8843EA1213CB8002F00F030B723E
:1028E0007D4B5B68C3F30722D3094B72C2F380139D
:1028F0008B72C2F34013CB72C2F300130B7300232D
:102900004B73734B1B681BB1714B1B68012B50D170
:1029100093071B0D0B61704B5B68DAB20B6943EADE
:1029200082030B616C4B9B681A0E0B6943EA92138E
:102930000B61C2F3C2030B7502F007034B75664BC4
:102940009B68C3F3074253098B75C2F38203CB75AF
:1029500093075B0F0B76604B9B68C3F307220B7EDC
:1029600043EAD2130B760B695B1C0024C1E91234D5
:102970000B7ED1E912549B1C012606FA03F3DF17E4
:10298000A5FB036C04FB03C305FB0733C1E912631A
:102990000C7A0123A3400B650026D1E912540B6D7C
:1029A000A5FB037C04FB03C305FB0633C1E91273DB
:1029B00024E0474B1B68022B20D1474B5B68DAB2FF
:1029C00093069B0A0B61444B9B681A0E0B6943EA02
:1029D00002230B61404B9B68C3F307420B6913430F
:1029E0000B613D4B9B68C3F307220B695B1CDB0447
:1029F0000024C1E912344FF400730B65C2F3801355
:102A000001F8193F93065B0E4B70334B9B68DAB2AB
:102A10004B7843EAD2134B7002F07F038B702E4B3E
:102A2000DB681A0ED309CB70C2F341130B71C2F3EA
:102A300082034B7193071B0F8B71274BDB68C3F32A
:102A400007428B7943EA92138B71C2F34013CB7127
:102A500000230B7202F001034B721F4BDB68C3F3C0
:102A60000722D3098B72C2F38013CB72C2F34013D7
:102A70000B73C2F300134B73C2F381038B7302F029
:102A80000303CB73144BDB68DAB253080B740123D6
:102A90004B74124B1B681A0ECA74A1F119010F4B2B
:102AA0001B68C3F307424FEA0223CB850B4B1B681D
:102AB000C3F30722CB8D43EA0203CB85074B1B6888
:102AC000DAB24FEA02640BE02C000020180100206B
:102AD000280000200001002078000020880000204D
:102AE0000C63FF4B5B684FEA13620B6B43EA0244D3
:102AF0000C63FB4B5B68C3F307420B6B43EA022496
:102B00000C63F74B5B68C3F307220B6B43EA0203CA
:102B10000B63F34B5B68DAB24FF034035A54F04B5B
:102B20009B684FEA13624FF035035A54EC4B9B6895
:102B3000C3F307424FEA02648C63E94B9B68C3F31B
:102B400007228B6B43EA02448C63E54B9B68DAB245
:102B50008B6B43EA02248C63E14BDB684FEA136220
:102B60008B6B43EA02038B63DD4BDB68C3F30742E5
:102B70004FF03C035B5C43EA12134FF03C04635498
:102B80004FEA02734FEA1353CB87D54BDB68C3F38D
:102B90000722CB8F43EA0203CB87D14BDB68DAB243
:102BA0004FEA52034FF0400463544FF001044FF0DA
:102BB00041035C54F0BD70B50025CA48446B01E088
:102BC000C848446B14F0450FFAD014F0040F05D038
:102BD00003250420FEF706FF284670BD14F0010F00
:102BE00005D001250120FEF7FDFE2846F5E740F25D
:102BF000FF50FEF7F7FE2846EFE72DE9F0410646C5
:102C00000F464FF00008B748456B01E0B548456BEB
:102C100015F0450FFAD015F0040F07D04FF0030858
:102C20000420FEF7DFFE4046BDE8F08115F0010FFD
:102C300006D04FF001080120FEF7D4FE4046F3E72E
:102C4000FEF776FEB04203D04FF010084046EBE7A7
:102C500040F2FF50FEF7C6FE0020FEF76DFE044670
:102C600014F4604F03D1200C38804046DCE714F4A4
:102C7000005F01D01320D7E714F4804F01D010205B
:102C8000D2E714F4004F01D00F20CDE74046CBE748
:102C900038B5002401200090FEF71BFE10B9252452
:102CA000204638BD90480068042828D000208F496D
:102CB000086002204860C02088600020C8604FF48F
:102CC000806008610846FEF719FEFFF774FF0446AE
:102CD0000CB12046E5E70020FEF72EFE8049086093
:102CE0000420FEF729FE7E4948600820FEF724FEF6
:102CF0007B4988600C20FEF71FFE7949C8607A483E
:102D0000006858B178480068012807D07648006804
:102D1000062803D074480068022816D100207349A1
:102D2000086003204860402088600020C8604FF49D
:102D3000806008610846FEF7E1FD69460320FFF761
:102D40005CFF04460CB12046ABE7674800680428E6
:102D50002ED0BDF8000066490860BDF800000004F0
:102D60006249086009204860C02088600020C8606F
:102D70004FF4806008610846FEF7C0FDFFF71BFFB7
:102D800004460CB120468CE70020FEF7D5FD5949DA
:102D900008600420FEF7D0FD564948600820FEF781
:102DA000CBFD544988600C20FEF7C6FD5149C86030
:102DB0000024204675E770B500254A48446B01E0C1
:102DC0004848446B14F0450FFAD014F0040F05D0B6
:102DD00003250420FEF706FE284670BD40F2FF5092
:102DE000FEF700FE2846F8E770B500264FF4803560
:102DF0003C48446B02E06D1E3A48446B14F0450FAA
:102E000001D1002DF7D115B114F0040F05D0032620
:102E10000420FEF7E7FD304670BD14F0400F05D0EA
:102E200000264020FEF7DEFD3046F5E73046F3E7AA
:102E300070B500254FF4803400E0641E24B180207A
:102E4000FEF7C6FD0028F8D014B90325284670BD4A
:102E500040F2FF50FEF7C6FD2846F8E72DE9F041A5
:102E60000024002600250027A046B220224908752C
:102E70000020086048608860C86008610846FEF766
:102E8000FDFC0320FEF71AFD0120FEF714FD0020D3
:102E90001649086048608860C8604FF48060086127
:102EA0000846FEF72BFDFFF7C3FF044614B120468A
:102EB000BDE8F0814FF4D5700C49086008204860E7
:102EC000402088600020C8604FF480600861084698
:102ED000FEF714FDFFF788FF0446A4B901200DE0BA
:102EE00088000020008001402800002018010020F8
:102EF0002C0000207800002000010020FF4908601D
:102F00004FF0804812E00020FD49086037204860FB
:102F1000402088600020C8604FF480600861084647
:102F2000FEF7ECFC3720FFF754FA04460020F44982
:102F3000086037204860402088600020C8604FF457
:102F4000806008610846FEF7D9FC3720FFF741FA98
:102F50000446ECBB36E00020E949086037204860B1
:102F6000402088600020C8604FF4806008610846F7
:102F7000FEF7C4FC3720FFF72CFA04460CB12046BC
:102F800096E7E04848EA0000DD49086029204860EB
:102F9000402088600020C8604FF4806008610846C7
:102FA000FEF7ACFCFFF707FF04460CB120467FE7B5
:102FB0000020FEF7C1FC0646012080EAD67080F0B2
:102FC00001076D1C1FB94FF6FF708542C3D300E0A7
:102FD0000DE04FF6FF70854202D31B24204667E7C1
:102FE00006F08040060002D00220C4490860204656
:102FF0005EE710B50024FFF755F9FEF731FCFFF747
:103000002DFF04460CB1204610BDFFF741FE0446DB
:103010000CB12046F8E70120BB4908750020086084
:1030200048608860C86008610846FEF727FCFFF723
:10303000FBF8B648FFF71FFC044634B9B349B1F8B2
:1030400054100804FFF7FFFB044624B94FF4006056
:10305000FFF7B3FB04462046D6E770B504460025CB
:1030600014B92625284670BDA94800680004A44963
:1030700008600D204860402088600020C8604FF440
:10308000806008610846FEF739FC0D20FFF7A1F9C2
:1030900005460DB12846E6E70020FEF74DFC20600E
:1030A0002846E0E70120704708B500200090FFF7B0
:1030B000F9FF012809D16846FFF7CFFF08B1FF20CB
:1030C00008BD0098C0F34320FAE7FF20F8E710B5E9
:1030D0000424FFF7E9FF0446042C01D1002010BDB1
:1030E000FF2C01D10220FAE70120F8E710B50024F7
:1030F0000020FEF7E3FB204610BD70B50446002615
:1031000000250020FEF718FC10F0007F02D00E26EC
:10311000304670BD40207A49086010204860402049
:1031200088600020C8604FF4806008610846FEF7A0
:10313000E5FB1020FFF74DF906460EB13046E8E7F3
:103140007348006800046E490860372048604020DA
:1031500088600020C8604FF4806008610846FEF770
:10316000CDFB3720FFF735F906460EB13046D0E7E4
:103170004AF6FF7067490860402048606020886018
:103180000220C86000200861012048610846FEF75F
:10319000DAFB00205A4908600D2048604020886012
:1031A0000020C8604FF4806008610846FEF7A6FB67
:1031B0000D20FFF70EF906460EB13046A9E70EE0E6
:1031C0004FF40040FEF704FC48B1002504E0FEF790
:1031D000DCFB44F825006D1C082DF8D320344E4844
:1031E000406B40F22A610842EAD00820FEF7F0FB6B
:1031F00028B10820FEF7F6FB0426304689E70220B6
:10320000FEF7E6FB28B10220FEF7ECFB0226304673
:103210007FE72020FEF7DCFB28B12020FEF7E2FB51
:103220000626304675E74FF40070FEF7D1FB30B14B
:103230004FF40070FEF7D6FB0726304669E74AF6E2
:10324000FF7504E0FEF7A1FB2060241D6D1E4FF406
:103250000010FEF7BDFB08B1002DF3D140F2FF5086
:10326000FEF7C0FB304654E770B504460026002543
:103270002A48FFF742FF06460EB1304670BD274888
:1032800000788509257025480078C0F340156570E1
:1032900022488578280260802048C57860882843C5
:1032A00060801E480579280660601C484579606882
:1032B00040EA0540606019488579606840EA052069
:1032C00060601648C5796068284360601348057AD5
:1032D0002572457A6572807A0509A5720F48C57A0C
:1032E0002802A0810D48057BA0892843A0810B48B6
:1032F000407B8508A5730948407B11E02800002029
:10330000180100200000108000010020A80000200B
:103310002C0000202C01002000800140980000209B
:1033200000F00305E5733046A8E72DE9F04180463B
:1033300014461D46069E4FF000073846FF490870A8
:10334000FF490860FF490860FF49C862FF480068FC
:10335000022808D10602020200232046294602F074
:1033600065F804460D46FA4806601020F8494860A2
:10337000402088600020C8604FF4806008610846E3
:10338000FEF7BCFA1020FFF724F8074617B13846BD
:10339000BDE8F0814AF6FF70EE49086008464660D5
:1033A000902088600220C8600020086101204861E8
:1033B0000846FEF7C8FAE64804601120E449486070
:1033C000402088600020C8604FF480600861084693
:1033D000FEF794FA1120FEF7FCFF07460FB13846BE
:1033E000D6E7012140F22A30FEF778FA0120FEF7F5
:1033F00082FA31464046FEF7B3FF3846C8E72DE96A
:10340000F047814614461D46DDE908684FF0000785
:103410003846CA490870CA4908604FF00100C949D6
:1034200008604FF00000C849C862C8480068022818
:1034300008D10602020200232046294601F0F6FFC9
:1034400004460D46C24806601020C149486040202D
:1034500088600020C8604FF4806008610846FEF76D
:103460004DFA1020FEF7B5FF074617B13846BDE804
:10347000F0874AF6FF70B749086008FB06F048601D
:10348000902088600220C860002008610120486107
:103490000846FEF758FAAE4804601220AC4948606E
:1034A000402088600020C8604FF4806008610846B2
:1034B000FEF724FA1220FEF78CFF07460FB13846BC
:1034C000D5E7012140F22A30FEF708FA0120FEF785
:1034D00012FA08FB06F14846FEF742FF3846C6E7F7
:1034E00010B5002400209A4908600C204860402054
:1034F00088600020C8604FF4806008610846FEF7CD
:10350000FDF90C20FEF765FF0446204610BD70B59E
:1035100000254AF6FF7400E0641E8F48006838B941
:103520008748006820B98548007808B9002CF3D195
:103530000020894908604AF6FF7400E0641E824852
:10354000406B10F4005F01D0002CF7D17D4800687B
:10355000012802D1FFF7C4FF05460CB905B90425BF
:1035600040F2FF50FEF73EFA7448007810B17348FD
:10357000007870BD2846FCE72DE9F04180461446EE
:103580001D46069E4FF0000738466C4908706C498E
:1035900008606C4908606C49C8626C480068022881
:1035A00008D10602020200232046294601F03EFF10
:1035B00004460D4666480660102065494860402074
:1035C00088600020C8604FF4806008610846FEF7FC
:1035D00095F91020FEF7FDFE074617B13846BDE805
:1035E000F0815B4804601820594948604020886099
:1035F0000020C8604FF4806008610846FEF77EF93D
:103600001820FEF7E6FE07460FB13846E7E74AF610
:10361000FF7050490860084646609020886000208E
:10362000C8600861012048610846FEF78CF9012155
:1036300040F22A30FEF752F931464046FEF760FE6E
:103640000120FEF758F93846C9E72DE9F0478146D1
:1036500014461D46DDE908784FF00006304637492C
:103660000870374908604FF00100364908604FF094
:1036700000003549C86235480068022808D10702B1
:10368000020200232046294601F0D0FE04460D46E2
:103690002F48076010202E49486040208860002095
:1036A000C8604FF4806008610846FEF727F91020D3
:1036B000FEF78FFE064616B13046BDE8F087274874
:1036C0000068000422490860372048604020886074
:1036D0000020C8604FF4806008610846FEF70EF9CC
:1036E0003720FEF776FE06460EB13046E5E718486D
:1036F000C0F80080172016494860402088600020EC
:10370000C8604FF4806008610846FEF7F7F817209C
:10371000FEF75FFE06460EB13046CEE70C48046069
:1037200019200B494860402088600020C8604FF491
:10373000806008610846FEF7E1F811E034000020DF
:1037400038000020300000200080014028000020C8
:10375000180100202C0100203C0000202C0000203B
:103760001920FEF736FE06460EB13046A5E74AF6AA
:10377000FF70FC49086008FB07F0486090208860F3
:103780000020C8600861012048610846FEF7DBF8A8
:10379000012140F22A30FEF7A1F80120FEF7ABF834
:1037A00008FB07F14846FEF7ABFD304685E770B5EC
:1037B00000254AF6FF7400E0641EEB48006838B943
:1037C000EA48006820B9EA48007808B9002CF3D12B
:1037D0000020E54908604AF6FF7400E0641EE548F1
:1037E000406B10F4805F01D0002CF7D1E2480068F4
:1037F000012802D1FFF774FE05460CB905B904256E
:1038000040F2FF50FEF7EEF8D948007810B1D848E2
:10381000007870BD2846FCE7D648406B10F4405F46
:1038200001D0012070470020FCE72DE9F041064659
:10383000002700240025D14800680004D049086012
:103840000D204860402088600020C8604FF48060F0
:1038500008610846FEF752F8C648456B01E0C548C6
:10386000456B15F0450FFAD015F0040F06D003276D
:103870000420FEF7B7F83846BDE8F08115F0010FD7
:1038800005D001270120FEF7ADF83846F4E7FEF732
:103890004FF805460D2D02D010273846ECE740F2D0
:1038A000FF50FEF79FF80020FEF746F80446C4F3E9
:1038B00043203070B348044201D13846DCE714F0AD
:1038C000004F01D01C20D7E714F0804F01D0092011
:1038D000D2E714F0005F01D00A20CDE714F0805F3A
:1038E00001D00B20C8E714F0006F01D00C20C3E713
:1038F00014F0806F01D00D20BEE714F0807F01D05E
:103900000E20B9E714F4000F01D00F20B4E714F42F
:10391000800F01D01020AFE714F4001F01D0112058
:10392000AAE714F4801F01D01220A5E714F4002F99
:1039300001D01320A0E714F4802F01D014209BE7BE
:1039400014F4003F01D0152096E714F4803F01D015
:10395000162091E714F4004F01D017208CE714F4DF
:10396000804F01D0182087E714F4005F01D01920A0
:1039700082E714F0080F01D01A207DE738467BE774
:103980002DE9F84306460F4600240025A0460020F6
:1039900000907D484068202111EA105F03D1252462
:1039A0002046BDE8F88373484068C0B2801C774960
:1039B000B1FBF0F80020FDF7BFFF10F0007F02D050
:1039C0000E242046EDE772480068022801D1760AED
:1039D0007F0A6F48006838B16D480068012803D03D
:1039E0006B48006802282BD1654806602020644996
:1039F0004860402088600020C8604FF48060086103
:103A00000846FDF77BFF2020FEF7E3FC04460CB1DF
:103A10002046C6E75A48076021205949486040209F
:103A200088600020C8604FF4806008610846FDF798
:103A300065FF2120FEF7CDFC04460CB12046B0E71F
:103A400000204F4908602620486040208860002000
:103A5000C8604FF4806008610846FDF74FFF2620DC
:103A6000FEF7B7FC04460CB120469AE7002500E0BB
:103A70006D1C4545FCD36846FFF7D7FE04464AF661
:103A8000FF7504E06846FFF7D0FE04466D1E45B1A1
:103A90003CB99DF800000728F4D09DF800000628E6
:103AA000F0D020467DE710B54FF48070FDF79DFF04
:103AB00050B100202E4908704FF48070FDF79FFF31
:103AC00001202A49086037E00220FDF78EFF30B15F
:103AD0000220FDF794FF0220254908702CE0082001
:103AE000FDF783FF30B10820FDF789FF042020494E
:103AF000087021E02020FDF778FF30B12020FDF78D
:103B00007EFF06201A49087016E01020FDF76DFFB1
:103B100030B11020FDF773FF0520154908700BE048
:103B20004FF40070FDF761FF30B14FF40070FDF706
:103B300066FF07200E49087000214CF23A30FDF76D
:103B4000CDFE0B48007810BD10B512480068124930
:103B5000084205D00120044908601048FCF75BFDCD
:103B600010BD00002C0100203C0000203800002087
:103B70003400002000800140300000202C00002094
:103B80001801002008E0FFFD78000020C0D40100EB
:103B900028000020000402400020001000F0001067
:103BA0000146002002E04910421CD0B20129FAD19E
:103BB0007047000000B585B001210420FDF7E5FD48
:103BC00001214804FDF7EEFD0420ADF81000182097
:103BD0008DF8130003208DF8120004A97D48FDF72D
:103BE00029F90820ADF8100004208DF8130004A96D
:103BF0007848FDF71FF94FF4165000900020ADF8FB
:103C00000400ADF80600ADF80800ADF80C000C207B
:103C1000ADF80A0069467048FDF751FF01216E4872
:103C2000FDF7D9FF05B000BDF0B503460D461646B9
:103C3000002729460A2E03D0002008702846F0BD30
:103C400033B9302001F8010B002008702846F6E750
:103C5000002B03DA2D2001F8010B5B4242F21072B7
:103C60000DE093FBF2F404B937B104F1300001F830
:103C7000010B04FB123301270A2092FBF0F2002A09
:103C8000EFDC002008702846D9E710B553480078CB
:103C9000FF2811DA40F225514F48FEF790F858B14D
:103CA0004D48FEF70CF84E494C4A127888544B4860
:103CB0000078401C4949087010BD0146474800780B
:103CC00008704748704700204449087070470FB497
:103CD00070B586B006460CA8019073E00B9800788A
:103CE0005C281CD10B98401C0B9000786E2809D0E2
:103CF00072280FD10D213046FDF7DDFF0B98401CD7
:103D00000B900BE00A213046FDF7D5FF0B98401CC5
:103D10000B9003E00B98401C0B9000BF4BE00B98FE
:103D20000078252840D10B98401C0B90007864281F
:103D300018D0732833D1019810C801900BE0217876
:103D40003046FDF7B8FF00BF80213046FEF721F86E
:103D50000028F9D0641C20780028F0D10B98401C72
:103D60000B9020E0019820C801900A2202A9284661
:103D7000FFF75AFF02AC0BE021783046FDF79BFFBE
:103D800000BF80213046FEF704F80028F9D0641CFB
:103D900020780028F0D10B98401C0B9003E00B9882
:103DA000401C0B9000BF06E00B9810F8011B0B9015
:103DB0003046FDF780FF00BF80213046FDF7E9FF68
:103DC0000028F9D00B980078002887D106B070BC85
:103DD0005DF814FB00080140004400404000002052
:103DE0004401002008B54FF4C060FCF7A1FA102090
:103DF0008DF8000001208DF8010000208DF80200F0
:103E000001208DF803006846FCF797FA08BD10B54D
:103E10004FF48000FCF708FC30B101208C49087099
:103E20008005FCF7F8FB0AE04FF40010FCF7FCFB00
:103E300028B10120874908704005FCF7ECFB10BD54
:103E400000B58BB001210846FDF792FC8248009036
:103E500082480190002002904FF4007003900020EF
:103E60000490802005900020069007902020089064
:103E7000C001099000200A9069467948FCF774FB5C
:103E8000FFF7B0FF012206217548FCF7A4FB0121D2
:103E90007348FCF794FB012240216F48001FFDF797
:103EA000CBFE0BB000BD10B5FFF784FEFFF7C8FFD7
:103EB00010BD70477047024602F5FA6111F0030F1A
:103EC00011D14FF4C87091FBF0F300FB131028B12F
:103ED000642091FBF0F300FB131008B1012000E017
:103EE0000020C0B270470020FCE72DE9FF4F81B0F1
:103EF00080468946164616B905B0BDE8F08F0C2EEF
:103F000000DDF9E7D8F800A0D8F80440D8F8085048
:103F1000D8F80C70D8F810B0D8F8140000900498B5
:103F2000B8B3B819182801D2374481E0B819A0F104
:103F30001807012C09D0032C07D0052C05D0072C1D
:103F400003D0082C01D00A2C06D11F2D01D26D1CE4
:103F50006EE00125641C6BE0042C05D0062C03D018
:103F6000092C01D00B2C06D11E2D01D26D1C5FE057
:103F70000125641C5CE0022C0ED11D2D06D01C2DE9
:103F800008D10AF0FF00FFF796FF18B90125641C5D
:103F90004EE00CE06D1C4BE00C2C49D11F2D01D2E2
:103FA0006D1C45E0012501240AF1010A40E0B742F9
:103FB00001D3BF1B3CE007F11800871B022C09D07E
:103FC000042C07D0062C05D0082C03D0092C01D0D6
:103FD0000B2C06D1012D01D96D1E29E01F25641E71
:103FE00026E0052C05D0072C03D00A2C01D00C2C80
:103FF00006D1012D01D96D1E1AE01E25641E17E0A1
:10400000032C0BD1012D07D10AF0FF00FFF753FF5E
:1040100010B91C25641E0BE06D1E09E0012C07D1B0
:10402000012D01D96D1E03E01F250C24AAF1010A00
:10403000C9F800A0C9F80440C9F80850C9F80C70C4
:10404000C9F810B00098C9F8140000BF54E7000088
:1040500042000020410000200444004043020020B0
:104060006C00024070B504460E4615460121EE482C
:10407000FDF7E7F800BFED49EB48FDF7C1F900286F
:10408000F9D000222146E848FDF734F900BFE8499D
:10409000E548FDF7B5F90028F9D02946E248FDF7D3
:1040A00023F900BFE249891CDF48FDF7A9F9002880
:1040B000F8D03146DC48FDF717F900BFDC49891C10
:1040C000D948FDF79DF90028F8D00121D648FDF721
:1040D000C4F870BD1FB50020ADF804004BF6FF70AA
:1040E000ADF80600C020ADF808004FF48060ADF8D0
:1040F0000A000001ADF80C00CE4800906946CA489D
:10410000FCF7FDFF0121C848FDF777F81FBD08B592
:1041100000214FF00060FCF74BF94FF4C060FCF752
:1041200007F907208DF8000000208DF801008DF8B8
:10413000020001208DF803006846FCF7FEF82520F8
:104140008DF8000000208DF8010001208DF802009C
:104150008DF803006846FCF7F0F808BD1CB5012196
:104160000020FCF77BFF0220009000208DF8040067
:104170000C208DF8050001208DF806006846FCF73C
:1041800086FA1CBD08B54FF40070ADF8000003209E
:104190008DF8020018208DF803006946A648FCF748
:1041A00049FE4FF48060ADF8000004208DF8030054
:1041B0006946A148FCF73EFE0220ADF8000004204D
:1041C0008DF8030069469C48FCF734FE4FF480608C
:1041D000ADF8000003208DF8020010208DF80300D8
:1041E00069469648FCF726FEC020ADF80000032083
:1041F0008DF802001C208DF8030069468F48FCF7FB
:1042000019FE08BD10B5FDF759F94FF48030FDF7E0
:1042100075F900BF2120FDF794F90028FAD0FDF7C9
:10422000ACF90446012C24D11020FCF7D3FA02206B
:10423000FCF7BCFA0020FDF7E2F90020FDF7F1F9E8
:10424000A002FDF7E5F94FF4E0112004FDF7BAF9FB
:104250000120FDF7C3F900BF3920FDF772F90028EE
:10426000FAD00220FDF7BDF900BFFDF7C3F9082819
:10427000FBD101210420FDF788FA01210820FDF778
:1042800084FA01211020FDF780FA01214805FDF78D
:1042900089FA01218803FDF778FA01210846FDF724
:1042A00074FA01210803FDF770FA10BD10B5FFF78D
:1042B000A9FFFFF767FFFFF751FFFFF728FFFFF7A1
:1042C00009FF6B220021D020FFF7CCFE1922072125
:1042D000D020FFF7C7FE1A220621D020FFF7C2FE2A
:1042E0001C220121D020FFF7BDFE1B221821D02067
:1042F000FFF7B8FE10BD2DE9F04106460D46174602
:104300001C4600BF4FF400314748FDF79BF80028DA
:10431000F8D101214448FCF794FF00BF43494248CB
:10432000FDF76EF80028F9D0002231463E48FCF730
:10433000E1FF00BF3E493C48FDF762F80028F9D094
:1043400001213948FCF759FF39463748FCF7CCFFC3
:1043500000BF3749891C3448FDF752F80028F8D0CF
:1043600001213148FCF76DFF00BF30492E48FDF7B1
:1043700047F80028F9D0012231462B48FCF7BAFF54
:1043800000BF2A49491C2848FDF73AF80028F8D010
:1043900016E0012C07D100212348FCF76AFF012118
:1043A0002148FCF75AFF21493F311F48FDF728F803
:1043B00030B11D48FCF79AFF28706D1C601E84B256
:1043C000002CE6D101211848FCF753FFBDE8F0812D
:1043D0007FB505460E233B226946D020FFF78BFFB1
:1043E00000240CE01DF814006100491C1DF80110A8
:1043F00001EB002000B225F81400601CC4B2032CAD
:10440000F0DB04240DE01DF814006100491C1DF8C8
:10441000011001EB002001B2601E25F81010601C95
:10442000C4B2072CEFDB7FBD005400400100030045
:1044300082000700A086010000080140000C014036
:10444000264870470FB430B5ADF2044DFFF7F8FFC2
:10445000056895B10DF21440CDF8000440F2FF312B
:104460006846DDF80034DDF8102401F001FE044652
:10447000002C02DD21466846A8470DF2044D30BCF1
:104480005DF814FB70B506460C46FFF7D9FF0568CA
:104490001DB114B121463046A84770BD0FB430B5E8
:1044A000ADF2044DFFF7CCFF456895B10DF2144015
:1044B000CDF8000440F2FF316846DDF80034DDF845
:1044C000102401F0D5FD0446002C02DD214668468B
:1044D000A8470DF2044D30BC5DF814FB44000020E9
:1044E00010B504464FF4B471204600F0F9FF201DCA
:1044F00000F010FE002020620120606210BD00006C
:10450000FEB506460D4614460027062D06D0082D9A
:1045100016D0092D15D00A2D27D113E004F114036C
:104520001A1FCDE90023131FF9A22946304600F0D7
:104530006EFE032801D1012000E00020074619E0AB
:1045400000BF00BF04F118031A1F111F8DE80E00F1
:104550000B1FF2A22946304600F059FE042801D173
:10456000012000E00020074604E0F0A0FFF796FFDE
:10457000002700BF00BF0FB10020FEBD4FF0FF308D
:10458000FBE770B505460C46052C01DA002070BD2E
:10459000EF4805220168284600F0C0FF08B9012055
:1045A000F5E7EB4805224168284600F0B7FF08B957
:1045B0000220ECE7E64805228168284600F0AEFFBD
:1045C00008B90420E3E7E2480522C168284600F064
:1045D000A5FF08B90820DAE7DD4805220169284669
:1045E00000F09CFF08B91020D1E70020CFE72DE9AB
:1045F000F04704460F46154604EB07080026B1466F
:10460000701E286029E02078242802D10EB10024F1
:1046100025E020782A281AD1601D404516D8E07878
:104620000D2813D120790A2810D110220221601CF4
:1046300000F088FD2860601DA8EB00003E1A286885
:10464000484503D04FF0FF302860002407E016B142
:10465000207880EA0909641C761C4445D3D300BF46
:104660002868002801DA04B100263046BDE8F0874A
:10467000F0B5CDB005460E4614468021204600F028
:104680002FFF31462846FFF7FDFE04F1780304F1C1
:10469000700204F1680104F1600009AF0FC7203B0C
:1046A000203A2039203805AF0FC7031F183A1839B0
:1046B000183801AF0FC71C3B00930DABA5A23146C4
:1046C000284600F0A4FD0E2805D0AFA0FFF7E6FEB7
:1046D00000204DB0F0BD0DA800F00EFF07462246A9
:1046E00001460DA8FFF70CFF20B1ACA0FFF7D6FEE6
:1046F0000020EEE70120ECE770B590B005460E46CD
:1047000014465021204600F0EBFE31462846FFF7C4
:10471000B9FE04F1480304F1400204F13801081F16
:10472000CDE90E23CDE90C01031F143A10391038DE
:10473000CDE90A23CDE90801031F103A10391038DA
:10474000CDE90623CDE90401031F103A1039201DDD
:104750008DE80F00234697A23146284600F057FD0A
:10476000112805D0A2A0FFF799FE002010B070BD5F
:104770000120FBE72DE9F04192B007468846144638
:104780005C21204600F0ACFE41463846FFF77AFE39
:1047900004F158031A1F111F04F148000EAD0FC594
:1047A000031F143A143914380AAD0FC5031F143A05
:1047B0001439143806AD0FC5031F143A14391438D0
:1047C00002AD0FC5031F221DCDE9002323468D4AEC
:1047D0004146384600F01BFD06466068401E8500D5
:1047E000281DA168814202DAA068401B00E0042075
:1047F0000546032000EB8505AE4201DB132E06DDE6
:1048000081A0FFF74BFE002012B0BDE8F08101202F
:10481000FAE72DE9F041CEB006460F461446602176
:10482000204600F05DFE39463046FFF72BFE04F1CE
:1048300059035A1E04F15001CDE90941CDE90B237A
:10484000231D503A083904F1400005AD0FC534333B
:1048500028322039203801AD0FC5031F00930EAB5D
:104860006EA23946304600F0D2FC05460D2D08D028
:104870000E2D06D076A0FFF711FE00204EB0BDE849
:10488000F0810EA800F038FE8046224601460EA8B0
:10489000FFF736FE20B173A0FFF700FE0020EDE722
:1048A00020685A2802DA2068643020606068401E60
:1048B00060600120E2E770B588B005460E461446F8
:1048C0004021204600F00CFE31462846FFF7DAFD75
:1048D00004F1380304F1300204F1280104F120004E
:1048E000CDE90523CDE90301203B203A20398DE8AD
:1048F0000E00234661A23146284600F088FC0828B5
:1049000005D066A0FFF7CAFD002008B070BDCFE05B
:104910002532642532642532640000002532642586
:1049200032642532642E25640000000050617273E9
:1049300065206F662074696D65206572726F7220E4
:1049400028666F726D6174206572726F7229210022
:10495000500000202447504747412C25732C2566E2
:104960002C25432C25662C25432C25642C25642CD2
:1049700025662C25662C25432C25662C25432C25C5
:10498000662C25642A00000047504747412070618B
:10499000727365206572726F72210000475047473D
:1049A000412074696D652070617273652065727253
:1049B0006F7221002447504753412C25432C256416
:1049C0002C25642C25642C25642C25642C25642C32
:1049D00025642C25642C25642C25642C25642C2529
:1049E000642C25642C25662C25662C25662A00005F
:1049F0004750475341207061727365206572726F32
:104A0000722100002C6A00084750475356207061FD
:104A1000727365206572726F7221000024475052D4
:104A20004D432C25732C25432C25662C25432C2502
:104A3000662C25432C25662C25662C2532642532D0
:104A4000642532642C25662C25432C25432A00003E
:104A50004750524D43207061727365206572726FCA
:104A6000722100004750524D432074696D652070DB
:104A700061727365206572726F722100244750560F
:104A800054472C25662C25432C25662C25432C25A4
:104A9000662C25432C25662C25432A004750565466
:104AA00047207061727365206572726F7221000019
:104AB000207A54280AD1207E4D2807D194F8280066
:104AC0004E2803D194F838004B2805D098A0FFF762
:104AD000E5FC002008B070BD0120FBE7C3680B6156
:104AE00003694B6143698B618369CB61C26B0A6265
:104AF000D0E91223C1E90C23D0E91423C1E914231E
:104B000090F828204E2A02D1D0E9082303E0D0E90A
:104B1000082383F00043C1E9102390F83820452A88
:104B200002D1D0E90C2303E0D0E90C2383F0004349
:104B3000C1E912230A6842F001020A607047F0B529
:104B4000002445684D62D0E90E56C1E90A56D0E905
:104B50001056C1E90C56D0E91256C1E90E56002292
:104B600020E000231AE000F1080555F82250A5B115
:104B700000F1080555F8226003EB830701F1780581
:104B800055F82750AE4208D1012603EB830701F107
:104B9000780505EB87056E60641C5B1C4D6F9D42BC
:104BA000E1DC521C0C2ADCDB0C670D6845F00205C9
:104BB0000D60F0BDF0B5D0E90065B54204DC0C260F
:104BC0004568B6EB850F00DAF0BD4568012D01DAC6
:104BD0000125456086684E6745686D1EAC00251D41
:104BE0008668AE4202DA85682D1B00E004252C465B
:104BF00000223AE045686D1E02EB850302EB820657
:104C000000F10C0555F8266003EB830701F17805E8
:104C100045F8276002EB820600F10C0505EB8605DE
:104C200003EB8307AE6801F1780505EB8705AE60FD
:104C300002EB820600F10C0505EB860503EB83070A
:104C4000EE6801F1780505EB8705EE6002EB820660
:104C500000F10C0505EB860503EB83072E6901F1D6
:104C6000780505EB87052E61521CA242C2DB0D6858
:104C700045F004050D6000BFA6E72DE9F0410746A9
:104C80000C46387F412809D1206A08B902202062E9
:104C9000606A012809D10220606206E0387F562848
:104CA00003D100202062012060621C223946201DB1
:104CB00000F0FDFB97F828004E2802D1D7E9080143
:104CC00003E0D7E9080181F00041C4E9100197F839
:104CD0003800452802D1D7E90C0103E0D7E90C01DF
:104CE00081F00041C4E912011A4A1B4BD7E9105167
:104CF000284600F0FDFCC4E91601D7E91201C4E919
:104D00001801206840F008002060BDE8F081D0E97B
:104D10000023C1E91823D0E90423C1E91A23D0E90B
:104D20000C23C1E916230A6842F010020A6070479A
:104D30004750565447207061727365206572726FD8
:104D4000722028666F726D6174206572726F7229AD
:104D5000210000006F1283C0CAA1FD3F70B5044658
:104D60000026FFF76DFB8568FF2D01DC4FF4807591
:104D70001421204600F0B4FB284601F011FEA0608B
:104D800018B9DEA0FFF78AFB01E0E5600126304696
:104D900070BD70B5054600262C6874B1606810B10E
:104DA000606801F0D5FD2668A0682860286808B909
:104DB00000206860204601F0CBFD304670BD10B584
:104DC000044602E02046FFF7E4FF20680028F9D1FE
:104DD000012010BD10B50446A06801F0B9FD2046C1
:104DE000FFF7EDFF1421204600F07AFB10BD2DE9FE
:104DF000F04104460E46002725685DB168683060C2
:104E00002F68A8682060206808B9002060602846E4
:104E100001F09EFD3846BDE8F081014600200861A2
:104E2000012070472DE9F84F05468A469046002636
:104E3000002428694044E968884202DB2846FFF7DD
:104E4000ECFF2A69A96888184246514600F02FFBFA
:104E500028694044286100BF2A69911BAA689019FB
:104E60006A46FFF7C4FB074657B946B12B699B1B3F
:104E70001A462B61AB689919184600F018FBC2E07E
:104E80000098002873DB2A69921B511EAA683244DD
:104E9000501CFFF776FB81460C2001F081FD0400D9
:104EA00000D1B4E000206060B9F1040F44D006DC0A
:104EB000B9F1010F0AD0B9F1020F74D121E0B9F1B3
:104EC000080F55D0B9F1100F6DD16DE0802001F0C1
:104ED00067FD606000B99AE0012020606268A968FF
:104EE00088193946FFF7C4FB50B9606820B1606883
:104EF00001F02EFD00206060204601F029FD002415
:104F000072E0502001F04CFD606000B97FE00220AB
:104F100020606268A96888193946FFF7EDFB50B92F
:104F2000606820B1606801F013FD002060602046D9
:104F300001F00EFD002457E05C2001F031FD6060BF
:104F400000B964E0042020606268A96888193946C5
:104F5000FFF710FC50B9606820B1606801F0F8FC00
:104F600000206060204601F0F3FC00243CE047E0B4
:104F7000602001F015FD606000B948E00820206065
:104F80006268A96888193946FFF743FC50B9606820
:104F900020B1606801F0DCFC00206060204601F078
:104FA000D7FC002420E01AE0402001F0F9FC60600A
:104FB00000B92CE0102020606268A9688819394681
:104FC000FFF779FC50B9606820B1606801F0C0FC5F
:104FD00000206060204601F0BBFC002404E0204675
:104FE00001F0B6FC002400BF00BF4CB1686808B1F6
:104FF000686884606C60286800B92C600020A0603C
:105000003E44002428E700BF3046BDE8F88F14B1C5
:10501000204601F09DFC39A0FFF740FA4FF0FF3029
:10502000F3E72DE9F041054688461446002700BF06
:10503000E868A04201DAEE6800E0264632464146C2
:105040002846FFF7EFFE0744A41B002CF0D138469A
:10505000BDE8F0812DE9F8430746884691461D4694
:105060000026002000904A4641463846FFF7D9FF07
:105070002AE0761C042C14D004DC012C07D0022C6E
:105080001ED109E0082C11D0102C19D113E02946AB
:105090000098FFF723FD13E029460098FFF74FFD26
:1050A0000EE029460098FFF785FD09E029460098A3
:1050B000FFF7E3FD04E029460098FFF728FE00BF54
:1050C00000BF009801F044FC69463846FFF78FFEA8
:1050D0000400CED13046BDE8F883014600200A68BE
:1050E00002B11068704710B502460B4600201168E7
:1050F00011B14C681C60086810BD0000496E7375E2
:105100006666696369656E74206D656D6F7279217D
:1051100000000000722101600021416001218160D6
:105120000021C160016141618161704710B5024693
:105130000B460020002102E0545C6040491C99426B
:10514000FADB10BDF0B5C1B005460C461646002787
:10515000FF2C0DDC22462946684600F0A8F9002005
:105160000DF80400324640A9684600F0E4F907460D
:10517000384641B0F0BDF0B5C1B007460E4600213B
:105180000C460D46FF2E0DDC32463946684600F0CF
:105190008EF900200DF8060040A9684601F036FCA3
:1051A00004460D462046294641B0F0BD0FB42DE916
:1051B000F84306460D460027002D04DC0020BDE81C
:1051C000F8035DF814FB0BA8009029463046009BBD
:1051D0000A9A00F04DFF0446002C0BDD611E701C86
:1051E000FFF7A4FF8046291B301943468DA200F02B
:1051F0002BFF07463C44002C01DBAC4205DD20229E
:105200002946304600F065F92C462046D7E70FB412
:105210002DE9FF5F04468B4604EB0B08012002904A
:1052200000264FF00009002001908246009011A84E
:105230000390EAE00298012806D0022813D0032840
:1052400017D004280ED12BE010980078252802D121
:105250000220029006E014F8011B109800788142A9
:1052600000D0D9E0CDE00026DDF840900320029088
:1052700000BF00F00FF9006810990978405C202801
:1052800000D1BEE0042002901098484507D910983C
:10529000A0EB09010A224846FFF754FF064600BF6B
:1052A00027466EB910980078632803D010980078CC
:1052B000432805D1207810994978884200D00126EA
:1052C0002EB1A019404501D834440DE0A4E0109857
:1052D000407840B1A8EB040210984178204600F0D5
:1052E00013F9040000D14446444500D994E001205C
:1052F00002900098401C00900025E61B1098007852
:10530000632812D008DC432810D0452828D047282D
:1053100024D0532830D112E0652820D066281BD035
:1053200067281AD0732827D108E000BF039820C847
:10533000039016B10DB1387828701DE000BF0398B6
:1053400020C803903EB135B132463946284600F0B8
:10535000AEF80020A8550FE000BF00BF00BF00BF9F
:10536000039820C8039036B12DB131463846FFF777
:1053700002FFC5E9000100BF00BF05B141E003988D
:1053800002C80D00039000D13BE006B939E0109847
:1053900000786F2829D006DC58281DD0642807D053
:1053A00069282BD105E075280CD0782826D112E089
:1053B00000BF0A2231463846FFF7C4FE019001982B
:1053C00028601CE00A2231463846FFF7BBFE8246C1
:1053D000C5F800A013E000BF102231463846FFF7A1
:1053E000B1FE8246C5F800A009E0082231463846E1
:1053F000FFF7A8FE8246C5F800A000E00CE000BF61
:1054000000BF00BF1098401C10901098007810B199
:105410004445FFF40FAF00BF009804B0BDE8F01F93
:105420005DF814FB2A253032780D0A002DE9F05F73
:105430000546002092469B46884606468146402403
:105440001DE0284641464746224600F06AFAB0EB86
:105450000A0052465B4671EB0B0110D31046194609
:10546000224600F04FFA2D1A67EB01084F462246FC
:105470000120002100F046FA17EB00094E41201EE2
:10548000A4F10104DDDC484631462A464346BDE826
:10549000F09F000000487047F06A000810B504460D
:1054A000FFF7F8FF0068005D00F0010010BD40EA62
:1054B00001039B0703D009E008C9121F08C0042A92
:1054C000FAD203E011F8013B00F8013B521EF9D279
:1054D0007047D2B201E000F8012B491EFBD27047A1
:1054E0000022F6E710B5044608461146024620465B
:1054F000FFF7EFFF204610BD0146002000E0401CF2
:105500000A5C002AFBD17047C9B203E003788B42E2
:1055100003D0401C521EF9D20020704730B504461B
:105520000020034600E05B1C934203D2E05CCD5CAC
:10553000401BF8D030BD2DE9F0470F46914680461C
:105540000446002614F8015B2DB1FFF7A3FF0068A5
:10555000405DC007F6D12B2D02D02D2D18D0641E32
:105560004A463946204600F0FEF927B13968A14283
:1055700001D1C7F8008071054FF002040BD54042FD
:10558000002803DD00F086FD0460A007BDE8F08779
:1055900046F48066E4E70028F8DA00F07BFD04605A
:1055A0006FF00040F2E72DE9FE4F074681EA030065
:1055B000C00F0E46019021F0004123F00044B81ABC
:1055C000A14105D23846314617461E460B460246D3
:1055D00023F00040104304D13846314603B0BDE803
:1055E000F08F350DC5F30A00C3F30A510290401A3B
:1055F0000090402867DAC3F3130040F4801B019841
:10560000924620B10023D2EB030A63EB0B0B009808
:105610005946C0F14002504600F074F980460C46ED
:1056200050465946009A00F08CF9C0197141EF17A5
:1056300085EA11533B433FD0019A4AB3009A012AAD
:1056400011DC0022801A61EB05514FF0004303EAA0
:105650000555CDE90025801841F5801142462346C5
:1056600000F029FABAE72E050025401B61EB060180
:10567000401941F58012001852412818A6F5001370
:1056800043EB020140EAD47018EB0808644113E0D0
:1056900064084FEA38084FF0000244EAC0744FEA49
:1056A0000553801A61EB0301801841F58011490808
:1056B0004FEA3000801859414246234603B0BDE806
:1056C000F04F00F0EBB90198012240000023D0EB2D
:1056D000020263EBE07301984FEAE074381A66EB5C
:1056E0000401EBE783F000435DE781F000415AE7F6
:1056F0002DE9FE4F81EA030421F0004504F0004447
:1057000023F000414FF0000A009450EA050302D054
:1057100052EA010304D10020014603B0BDE8F08F36
:10572000C1F30A53C5F30A542344A3F2F33301939C
:10573000A0FB02B3C5F3130545F4801CC1F31301AC
:1057400041F480180CFB023300FB083E810A930AE7
:1057500041EA8C5143EA8853A1FB03474FEA9C2559
:1057600005FB03734FEA982601FB06373D05260526
:1057700045EA1435BBEB06016EEB0503850E920E70
:1057800045EA8C1542EA8812A5FB0206261E67EB45
:1057900000070C0D44EA0334A61947EB1350C1F37C
:1057A00013044FF000031946E5FB02014FEA0335ED
:1057B00045EA1455019B4FEA0432009CA3F10C0307
:1057C000CDE900A445EA060502932B4600F073F9E3
:1057D000A3E72DE9F04D81EA030404F0004B21F02A
:1057E000004714464FF0000A23F0004150EA070238
:1057F00020D054EA01021DD0C1F30A550246C1F37C
:105800001300C7F30A56C7F3130340F4801143F49F
:105810008013A6EB0508101BD64608F2FD3873EB83
:10582000010002D308F1010801E092185B41B8F1D0
:10583000000F03DA00200146BDE8F08D00204FF490
:105840008015064607460EE0B2EB040C73EB010C24
:1058500004D3121B064363EB01032F436D084FEA89
:10586000300092185B4150EA050CEDD152EA03007A
:1058700012D082EA040083EA0105284303D1002202
:105880004FF0004308E0101B8B4102D2012200239D
:1058900002E06FF0010253101AEB060047EB0851CB
:1058A00010EB0A0041EB0B01BDE8F04D00F0F6B83B
:1058B00030B5002904DB4FF00044404264EB0101A5
:1058C000002B04DB4FF00044524264EB0303994287
:1058D00008BF904230BD000030B50B4601460020A5
:1058E0002022012409E021FA02F59D4205D303FAA2
:1058F00002F5491B04FA02F52844151EA2F1010223
:10590000F1DC30BD202A04DB203A00FA02F100204D
:1059100070479140C2F1200320FA03F319439040ED
:105920007047202A04DB203A21FA02F00021704758
:1059300021FA02F3D040C2F12002914008431946F7
:105940007047202A06DBCB17203A41FA02F043EADF
:10595000E07306E041FA02F3D040C2F12002914028
:105960000843194670472DE9F05F824604460078E7
:105970000027641C8B461546B946302801D09DB1DE
:1059800013E014F8010B0127782803D0582801D020
:1059900045B10AE00DB1102D07D10027102514F8EC
:1059A000010B02E0082500E00A250026B0460EE0C3
:1059B00005FB080005FB06F1012701EB10461FFA65
:1059C00080F8B6F5803F00D3B94614F8010B29469C
:1059D00000F0F0F80028EBDABBF1000F04D0641EF1
:1059E00007B95446CBF80040B9F1000F06D000F0DB
:1059F00051FB02210160C81EBDE8F09F48EA064045
:105A0000FAE700000FB4002300B589B00CA900919B
:105A10000B99204ACB601E4BCDE90632042201923D
:105A20006FF0004202921C4A089202466B46002028
:105A300000F058F909B05DF814FB70B586B0064661
:105A40004FF0FF300091CDE9010100200C461546D2
:105A500004903246694604A8FFF7D4FF0346049831
:105A600021181DB10A4600B922462A6000280DD02F
:105A7000002B02DD0098884208D0081B0094CDE975
:105A800001043246694604A8FFF7BCFF06B070BDAA
:105A9000295F0008475F00089D54000810B5002BDF
:105AA00008DA401C41F1000192185B411A4301D110
:105AB00020F0010010BD2DE9FF4D934611B1B1FA60
:105AC00081F202E0B0FA80F220329246FFF71AFF2C
:105AD000039A0746884640EA0B0011435B46084399
