:020000040800F2
:10000000F8920120050A00082503000827030008CC
:100010002B0300082F030008330300080000000032
:10002000000000000000000000000000370300088E
:1000300039030008000000003B0300083D030008EE
:100040001F0A00081F0A00081F0A00081F0A0008EC
:100050001F0A00081F0A00081F0A00081F0A0008DC
:100060001F0A00081F0A00081F0A00081F0A0008CC
:100070001F0A00081F0A00081F0A00081F0A0008BC
:100080001F0A00081F0A00081F0A00081F0A0008AC
:100090001F0A00081F0A00081F0A00081F0A00089C
:1000A0001F0A00081F0A00081F0A00081F0A00088C
:1000B0001F0A00081F0A00081F0A00081F0A00087C
:1000C0001F0A00081F0A00081F0A00081F0A00086C
:1000D0001F0A0008733000089F300008BB3000087A
:1000E0001F0A00081F0A00081F0A00081F0A00084C
:1000F0001F0A00081F0A00081F0A00081F0A00083C
:100100001F0A00081F0A00081F0A00081F0A00082B
:10011000D7300008F33000081F0A00081F0A000843
:100120001F0A00081F0A00081F0A00081F0A00080B
:100130001F0A00081F0A00081F0A00081F0A0008FB
:100140001F0A00081F0A00081F0A00081F0A0008EB
:100150001F0A00081F0A00081F0A00080D310008C6
:100160001F0A00081F0A00081F0A00081F0A0008CB
:100170001F0A00081F0A00081F0A00081F0A0008BB
:100180001F0A00081F0A000800F002F800F0BAF881
:100190000AA090E8000C82448344AAF10107DA45E2
:1001A00001D100F0AFF8AFF2090EBAE80F0013F07A
:1001B000010F18BFFB1A43F001031847F09D000020
:1001C000109E000010F8013B0A4413F0030408BF1E
:1001D00010F8014B1D1108BF10F8015B641E05D01B
:1001E00010F8016B641E01F8016BF9D1002D15D0D8
:1001F00010F8014B03F00C030C2BA1EB04040ABF15
:1002000010F8013BA4EB8314A4EB032405F10103D4
:1002100014F8016B5B1E01F8016BF9D5914238BFF0
:1002200010F8013BD1D3704700230024002500269D
:10023000103A28BF78C1FBD8520728BF30C148BF49
:100240000B6070476E2906F01783702906F05984F9
:10025000662909F03883652909F03583672909F093
:1002600032836129AFF3008003681B0A28BF41F085
:100270008001692906F0C482642906F0C1827529CB
:1002800006F0BE826F2906F0E783782906F0258400
:10029000E92906F08183E42906F07E83F52906F03A
:1002A0007B83EF2906F0E483F82906F024840368B1
:1002B000DB0928BF41F08001632906F0C887732954
:1002C00006F0CD87E32906F0D887F32906F0DD870D
:1002D000002070471FB509F0ECFA9DE8030006F016
:1002E000C5F907F02BF804000020002108F002FDFA
:1002F000401C60600020002108F0E6FCE0601FBDAB
:1003000010B510BD06F0EDFF1146FFF7E3FF00F05A
:1003100033F907F0C5F803B4FFF7F2FF03BC07F0A9
:10032000F3F80000704700BFFEE700BFFEE700BF24
:10033000FEE700BFFEE770477047704710B503F057
:10034000D9F903F0E0F910BD10B50021EE4803F033
:1003500076F9EE4803F098F940B90121EA4803F034
:100360006EF900227D21EA4803F034F8E94803F0F1
:100370008BF940B90121E44803F061F900227D21A5
:10038000E54803F027F8E54803F07EF940B901217C
:10039000DD4803F054F900227D21E14803F01AF80A
:1003A000E04803F071F960B90121D74803F047F93B
:1003B00000227D21DC4803F00DF80321022003F028
:1003C000CFFDDA4803F060F940B90121CE4803F0CF
:1003D00036F900227D21D64802F0FCFFD54803F013
:1003E00053F940B90121C84803F029F900227D21C1
:1003F000D14802F0EFFF10BDD0480088401CCF4923
:10040000088008460088B0F57A7F08D1CC4800788B
:10041000401C40B2CA4908700020C8490880C8483A
:1004200000783C2807D1C7480078401CC5490870AF
:100430000020C3490870C34800783C2807D1C2484F
:100440000078401CC04908700020BE490870704701
:100450000EB5BEA20021084603F09FFEB7480088F3
:10046000B74991F90010B74A1278CDE900210290FE
:10047000B5480378B8A20121002003F08EFE0EBD1E
:1004800010B51F2264213C2003F0F8FD10BD10B50B
:10049000B64A1178B64A10784FF6FF7203F0EEFDB7
:1004A000A04803F0F1F820B9B1480068401CB049F9
:1004B00008609A4803F0E8F820B9AD480068401E8B
:1004C000AB490860934803F0DFF820B9A7480068FB
:1004D000401CA64908608D4803F0D6F820B9A3480F
:1004E0000068401EA1490860A148A2A20321036838
:1004F000002003F052FE9D489FA2042103680020C3
:1005000003F04BFE894803F0BFF838B9974A1178D9
:10051000974A10784FF4FC6203F0B0FD10BD10B59F
:100520002DED048B82B09248006808F066FE41EC25
:10053000190BB0EE490AF0EE690A07F04DFFB0EE74
:10054000408AF0EE608A51EC180B08F0F5FB044687
:10055000204609F03DF941EC180B8DED008B87A288
:100560000521002003F019FE02B0BDEC048B10BD84
:1005700010B504F08EF910BD2DED028B82B003F0A2
:100580008DF803F001FA03F01FFA02F0EDFD4FF4CD
:1005900016517B4804F053FA00231A464FF6FF71B8
:1005A000022003F022FC072276A1754805F0CDFA5F
:1005B00076490860012276A1714805F0C6FA7649AD
:1005C0000860012275A16E4805F0BFFA7549086000
:1005D00099E06B4805F077FA7349087003F0A5F8C5
:1005E000724909688842F3D003F09FF86F490860A8
:1005F00000BF02F044FE6E4866210191818901F43A
:10060000005171B100BF018801F080010029FAD0CA
:100610009DF80410818000BF018801F0800100294D
:10062000FAD000BFFFF7E8FE60480068C821B0FBC1
:10063000F1F201FB120018B9FFF70AFF03F033FED5
:100640005A4800684FF42F71B0FBF1F201FB120021
:10065000002858D15448037856A20221002003F004
:100660009CFD474890F83D3054A20321002003F040
:1006700094FD4348837D53A20421002003F08DFDA7
:100680003F48037D51A20521002003F086FD3C4830
:10069000437D50A20621002003F07FFD384890EDF5
:1006A000000A10EE101A084609F092F841EC180BF7
:1006B0008DED008B49A20721002003F06EFD30482C
:1006C00090ED010A10EE101A084609F081F841EC8D
:1006D000180B8DED008B43A20821002003F05DFD77
:1006E000274890ED030A10EE101A084609F070F83A
:1006F00041EC180B8DED008B3CA20921002003F08A
:100700004CFD03F0D0FD64E744990008F49A00081A
:10071000729C0008449A00086E9C0008EC9A00083D
:10072000669C0008349A00086A9C0008E49A000855
:100730007A9C00083C9A0008769C00080C10002067
:1007400009100020081000200A10002028683A6DC7
:100750003A733A6D732920002564203A20256420DD
:100760003A202564203A202564200A001410002035
:100770001010002061256400622564007125660068
:1007800038410020244750524D43000028100020DB
:10079000244750474C4C00002C1000202447504761
:1007A00053410000301000201C10002000100020D9
:1007B0000010014072652564000000006E756D2513
:1007C00064000000796561722564000064617465ED
:1007D000256400006D6F6E74682564006C6174257B
:1007E000660000006C6F6E672566000061747469B6
:1007F000256600000CB50020019000907648006846
:1008000040F480307449086000BF7348006800F409
:10081000003000900198401C0190009818B9019890
:10082000B0F5A04FF1D16C48006800F4003010B171
:100830000120009001E0002000900098012846D19E
:1008400065484030006840F080506349403108609E
:100850006248006840F44040604908605E480830E3
:1008600000685D49083108600846006840F40040AF
:1008700008600846006840F4A05008605848091F06
:100880000860081F006840F08070091F086000BF02
:100890005148006800F000700028F9D040F205705F
:1008A000504908604C480830006820F003004A496D
:1008B000083108600846006840F00200086000BF88
:1008C00045480830006800F00C000828F8D10CBD3D
:1008D00010B54548006840F47000434908603E4840
:1008E000006840F001003C49086000203A490831A6
:1008F0000860394800683D490840374908603C486D
:10090000091D0860081F006820F48020091F086086
:10091000002031490C310860FFF76CFF4FF0006098
:1009200031498039086010BD70B5002000220223D3
:1009300000240221284D08352D6805F00C0020B157
:10094000042806D0082834D107E02A4D2A4E356005
:1009500033E02A4D284E35602FE01F4D2D1D2D68A8
:10096000C5F380541C4D2D1D2D6805F03F0154B179
:10097000224DB5FBF1F5184E361D3668C6F38816C4
:1009800005FB06F209E01B4DB5FBF1F5124E361DD5
:100990003668C6F3881605FB06F20F4D2D1D2D682F
:1009A000C5F301456D1C6B00B2FBF3F5124E3560CB
:1009B00003E0104D104E356000BF00BF064D0835F6
:1009C0002D68C5F303150E4E705D0B4D2D68C540A7
:1009D000094E356070BD00000038024000700040D4
:1009E00008544007003C024088ED00E0FFFFF6FE9F
:1009F000103000240024F4003410002000127A008B
:100A0000381000200948804709480047FEE7FEE704
:100A1000FEE7FEE7FEE7FEE7FEE7FEE7FEE7FEE7AE
:100A200004480549054A064B70470000D1080008F4
:100A300089010008F88C0120F8920120F88E01202D
:100A4000F88E012032490143324A1160704770B577
:100A5000002100230F22C4781CB32E4C246804F418
:100A6000E064C4F5E064C4F30721C1F10404E3B217
:100A70000A4144789C40E1B28478144021430C0739
:100A8000210E254C05786155047804F01F050124DA
:100A9000AC4005786D11AD0005F1E025C5F80041C9
:100AA00009E0047804F01F050124AC401B4D0678D2
:100AB000761145F8264070BD194A0A400243154B8D
:100AC0001B1F1A60704739B1124A121D1268024387
:100AD000104B1B1D1A6006E00E4A121D126882435D
:100AE0000C4B1B1D1A607047042808D14FF0E02101
:100AF000096941F004014FF0E022116107E04FF075
:100B0000E021096921F004014FF0E02211617047F2
:100B10000000FA050CED00E000E400E080E100E0F8
:100B200080FFFF1F10B504469848844208D1012178
:100B3000084600F086FB0021012000F082FB76E0F1
:100B40009348844208D10121022000F07AFB002161
:100B5000022000F076FB6AE08E48844208D1012131
:100B6000042000F06EFB0021042000F06AFB5EE030
:100B70008948844208D10121082000F062FB00214D
:100B8000082000F05EFB52E08448844208D1012135
:100B9000102000F056FB0021102000F052FB46E030
:100BA0007F48844208D10121202000F04AFB002127
:100BB000202000F046FB3AE07A48844208D1012127
:100BC000402000F03EFB0021402000F03AFB2EE0E8
:100BD0007548844208D10121802000F032FB0021B9
:100BE000802000F02EFB22E07048844208D10121D1
:100BF000801500F026FB0021A01500F022FB16E076
:100C00006B48844208D10121401500F01AFB0021F5
:100C1000601500F016FB0AE06648844207D1012106
:100C2000001500F00EFB0021201500F00AFB10BD9E
:100C3000F0B50A4600210023002400BF3DE0012555
:100C400005FA01F3156805EA03049C4234D10568EE
:100C50004F000326BE40B543056015794E00B540F0
:100C60000668354305601579012D02D01579022DEE
:100C700016D185684F000326BE40B543856055797F
:100C80004E00B540866835438560456801268E4034
:100C9000B5434560456896798E40B6B235434560A8
:100CA000C5684F000326BE40B543C560D5794E00E8
:100CB000B540C6683543C560491C1029BFD3F0BD97
:100CC0004FF6FF7101600021017141718171C171A5
:100CD000704708B54FF480320092009A0A430092A0
:100CE000009AC261C161009AC261C2690092C26980
:100CF000009208BD0246002013690B400BB1012091
:100D000000E0002070470146086980B27047024643
:100D1000002053690B400BB1012000E00020704718
:100D20000146486980B2704701837047418370472C
:100D30000AB1018300E04183704741617047426915
:100D40004A4042617047F0B5002300244D07ED0E84
:100D500002FA05F3CE1000F1200555F826504E0793
:100D6000F70E0F26BE40B543CF1000F1200646F81F
:100D70002750CE1000F1200555F8265045EA03040F
:100D8000CE1000F1200545F82640F0BD00000240DD
:100D90000004024000080240000C02400010024023
:100DA0000014024000180240001C024000200240D3
:100DB0000024024000280240F948006840F0010089
:100DC000F74908600020F64908310860F4480068D7
:100DD000F4490840F2490860F348091D0860F348E7
:100DE000EF4984310860F0481038091D0860EC486C
:100DF000006820F48020EA4908600020E8490C31AE
:100E00000860E7498C31086070470021E44A921C71
:100E1000117011460870704710B50146002200237A
:100E200000204A11012A02D1DD4C236808E0022A81
:100E300003D1DB4C7034236802E0D94C743423684E
:100E400001F01F02012494401C400CB1012000E07D
:100E5000002010BD38B5002000900024002500BF00
:100E60003120FFF7D9FF05460098401C00900098FC
:100E7000B0F5A04F01D0002DF2D03120FFF7CCFF0C
:100E800008B1012400E00024204638BD01460020BE
:100E9000C34A106820F0F80040EAC10010607047B3
:100EA000C349086070470021BD4A7032117011704B
:100EB000012802D004280AD104E00121B84A703286
:100EC000117005E00521B64A7032117000E000BFD4
:100ED00000BF7047B7490860704770B5049C41EA8D
:100EE00082150126C6EB530645EA0645054345EA49
:100EF0000465AB4E361D356070BDAD490866704760
:100F0000820142EA0172A64B84331A607047A849F5
:100F10008866704710B5830143EA016343EA0273B0
:100F20009F4C8834236010BDA14908677047A049D1
:100F3000C864704702460020994B0833186820F0B7
:100F4000EC6042EA01031843954B08331860704780
:100F500002460020924B0833186820F0784042EA9D
:100F6000010318438E4B0833186070470146002078
:100F70008B4A0832106820F0030008431060704765
:100F800087480830006800F00C00704701460020D8
:100F9000834A0832106820F0F00008431060704760
:100FA000014600207E4A0832106820F4E0500843D1
:100FB0001060704701460020794A0832106820F41A
:100FC000604040EAC10010607047F0B50021002287
:100FD0000024022500260223714F08373F6807F0DE
:100FE0000C0121B1042905D0082937D105E0724F41
:100FF000076036E0714F076033E0694F3F1D3F687F
:10100000C7F38056664F3F1D3F6807F03F036EB140
:101010006A4FB7FBF3F7DFF888C10CF1040CDCF87A
:1010200000C0CCF3881C07FB0CF40CE0624FB7FB4C
:10103000F3F7DFF86CC10CF1040CDCF800C0CCF362
:10104000881C07FB0CF4564F3F1D3F68C7F3014750
:101050007F1C7D00B4FBF5F7076002E0564F076088
:1010600000BF00BF4E4F08373F6807F0F001090985
:10107000534F7A5C0768D7404760494F08373F684D
:1010800007F4E051890A4E4F7A5C4768D740876081
:10109000434F08373F6807F46041490B484F7A5C7B
:1010A0004768D740C760F0BD002100F44072B2F538
:1010B000407F0AD13A4A0832116821F4F811414AB6
:1010C00002401143364A08321160354A70321268C4
:1010D000C0F30B031A43324B70331A607047354923
:1010E00044390860704733494039086070473649D1
:1010F0000860704701460020294A8C32106820F0B1
:101100001F004A1E1043264A8C3210607047014669
:101110000020234A8C32106820F4F8504A1E40EA1E
:1011200002201F4A8C3210607047014600201C4A82
:101130008C32106820F4401008431060704701465C
:101140000020174A8C32106820F4400008431060D9
:10115000704701460020124A8C32106820F440305B
:1011600008431060704719490860704739B10C4A4C
:101170003032126802430A4B30331A6006E0084AE4
:10118000303212688243064B30331A607047F9B12F
:10119000034A343212680243014B34331A601CE0B4
:1011A00000380240FFFFF6EA103000240030002033
:1011B00000004742800E47420024F40000127A00EB
:1011C00048100020FFFCFF0F5C014742E01147423E
:1011D0008F4A126882438E4B1A60704739B18C4A2D
:1011E000121D126802438A4B1B1D1A6006E0884AD2
:1011F000121D12688243864B1B1D1A60704739B15D
:10120000834A0C3212680243814B0C331A6006E0A9
:101210007F4A0C32126882437D4B0C331A60704750
:1012200039B17B4A103212680243794B10331A608D
:1012300006E0774A103212688243754B10331A6009
:10124000704739B1724A243A12680243704B243B0A
:101250001A6006E06E4A243A126882436C4B243BC3
:101260001A60704739B16A4A203A12680243684BE3
:10127000203B1A6006E0664A203A12688243644BBB
:10128000203B1A60704739B1614A1C3A1268024328
:101290005F4B1C3B1A6006E05D4A1C3A12688243B1
:1012A0005B4B1C3B1A60704739B1594A143A1268BB
:1012B0000243574B143B1A6006E0554A143A126831
:1012C0008243534B143B1A60704739B1504A103A6D
:1012D000126802434E4B103B1A6006E04C4A103A2B
:1012E000126882434A4B103B1A60704739B1484A32
:1012F0001C3212680243464B1C331A6006E0444A13
:101300001C3212688243424B1C331A60704739B159
:101310003F4A2032126802433D4B20331A6006E0F8
:101320003B4A203212688243394B20331A6070479F
:1013300039B1374A243212680243354B24331A60DC
:1013400006E0334A243212688243314B24331A6058
:10135000704739B12E4A2C32126802432C4B2C3381
:101360001A6006E02A4A2C3212688243284B2C333A
:101370001A60704739B1264A303212680243244B52
:1013800030331A6006E0224A303212688243204B22
:1013900030331A607047012808D11D493C31096873
:1013A00041F008011A4A3C32116007E018493C310B
:1013B000096821F00801164A3C321160704739B1C2
:1013C000134A273A12780243114B273B1A7006E062
:1013D0000F4A273A127882430D4B273B1A70704709
:1013E0000B484030006840F0807009494031086087
:1013F000704701460020064A283A12680A400AB19E
:10140000012000E00020704701492639087070472C
:101410003438024010B50446FB48844208D101210B
:101420008014FFF752FF0021A014FFF74EFF3CE0AD
:10143000F648844208D101210014FFF735FF00214E
:101440002014FFF731FF30E0F148844208D1012138
:10145000C013FFF729FF0021E013FFF725FF24E069
:10146000EC48844208D101214014FFF72EFF0021EF
:101470006014FFF72AFF18E0E748844209D10121F0
:101480000805FFF722FF00214FF48010FFF71DFF32
:101490000BE0E248844208D101214805FFF715FF1F
:1014A00000214FF40010FFF710FF10BD10B500220F
:1014B000028802F441520B884C8823438C882343D2
:1014C000CC8823430C8923434C8923438C892343B1
:1014D000CC8923431A430280838B4FF2FF7423404D
:1014E00083830B8A038210BD2DE9F04F0025022370
:1014F00000244FF001090022002600279446904660
:10150000B0F81CA04FF2400B0AEA0B0AA0F81CA08E
:101510004FF0020AA0F820A0858BD1F808A0BAF1FC
:10152000020F01D100BF82E0B1F804A0BAF1000FB0
:1015300002D14FF0010901E04FF00209DFF8E0A20B
:10154000DAF800A00AF4000ABAF1000F09D0DFF8B7
:10155000D0A2DAF800A02AF4000ADFF8C4B2CBF86F
:1015600000A0DFF8BCA20AF17C0ADAF800A0CAF3F6
:10157000881CDFF8ACA20AF17C0ADAF800A0CAF3F2
:101580000278DFF89CA2AAF1040ADAF800A00AF0B7
:101590003F07DFF88CA2AAF1040ADAF800A00AF4E7
:1015A000800ABAF5800F08D1DFF878A2BAFBF7FA03
:1015B0000AFB0CFABAFBF8F607E0DFF86CA2BAFBFC
:1015C000F7FA0AFB0CFABAFBF8F6B1F806A0BAF57E
:1015D000007F0ED14FEA162A0AEB8A0A4FEA4A0A1E
:1015E000D1F808B0BAFBFBFA0AF1050A1FFA8AF231
:1015F0000FE04FEA491AB6FBFAFA0AEB8A0A4FEAF9
:101600004A0AD1F808B0BAFBFBFA0AF1050A1FFA38
:101610008AF24FF00A0AB2FBFAF202F00104A2EBDE
:10162000040ACAF34F034FF6FF7A0AEA0424022B96
:1016300001DBFF2B01DD02230024B1F806A04AEAFA
:10164000040A4AEA030AA0F820A0B1F804A0B1F8FD
:101650000CB04AEA0B0AB1F802B04AEA0B0AB1F838
:1016600000B04AEA0B0A4AF4006A4AEA0505858393
:10167000BDE8F08F0021018041808180C18001811F
:1016800041818181C1810721018270470021018050
:1016900041808180C1800221816000218181704769
:1016A00021B1028842F04002028004E002884FF635
:1016B000BF731A400280704721B1828B42F480626E
:1016C000828304E0828B4FF6FF331A408283704797
:1016D00002884FF2FF731A40028002880A43028098
:1016E0007047B1F5804F04D1028842F480420280F5
:1016F00004E002884BF6FF731A40028070474FF6F1
:10170000FF62914204D0028842F48072028004E0B9
:1017100002884FF6FF631A400280704721B1828829
:1017200042F00402828004E082884FF6FB731A4084
:101730008280704721B1828842F01002828004E0EA
:1017400082884FF6EF731A408280704730B50022CE
:101750000023848B4FF240052C40848302240484B0
:10176000828B0C88B4F5007F01D00C8814B94FF43B
:10177000807308E00C88B4F5407F03D00C88B4F582
:10178000807F00D100238C888D892C434D882C4389
:101790001C4344F400642243828330BD014688899F
:1017A00070478181704721B1028842F40052028063
:1017B00004E002884DF6FF731A40028070470188EA
:1017C00041F480510180704702460020012901D078
:1017D000108B00E0908A70470146088A70471AB162
:1017E00083880B43838002E083888B438380704728
:1017F00030B5002400230C110125A540ABB2AAB1DD
:1018000085881D43858014E0003001400038004089
:10181000003C0040003401400050014000540140B1
:101820000838024000127A000024F40085889D43A5
:10183000858030BD0246002013890B400BB101208A
:1018400000E000207047CA4302817047F0B50246AD
:10185000002000240023002501F00F070126BE40D0
:10186000B4B20B1101269E40B3B2968806EA030576
:101870001689264016B10DB1012000E00020F0BD10
:1018800010B5002201F00F040123A3409AB2D34304
:10189000038110BD10B50446FE48844208D10121E1
:1018A0000846FFF712FD00210120FFF70EFD9DE025
:1018B000B4F1804F08D101210846FFF7F5FC002163
:1018C0000120FFF7F1FC91E0F348844208D10121A7
:1018D0000220FFF7E9FC00210220FFF7E5FC85E08C
:1018E000EE48844208D101210420FFF7DDFC0021ED
:1018F0000420FFF7D9FC79E0E948844208D10121AE
:101900000820FFF7D1FC00210820FFF7CDFC6DE097
:10191000E448844208D101211020FFF7C5FC0021D2
:101920001020FFF7C1FC61E0DF48844208D10121AB
:101930002020FFF7B9FC00212020FFF7B5FC55E07F
:10194000DA48844208D101210220FFF7BEFC0021C1
:101950000220FFF7BAFC49E0D548844209D10121B1
:101960000804FFF7B2FC00214FF48030FFF7ADFC14
:101970003CE0D048844209D101214804FFF7A5FC8E
:1019800000214FF40030FFF7A0FC2FE0CA4884424A
:1019900009D101218804FFF798FC00214FF4802031
:1019A000FFF793FC22E0C548844208D10121402082
:1019B000FFF77AFC00214020FFF776FC16E0C048D4
:1019C000844208D101218020FFF76EFC0021802095
:1019D000FFF76AFC0AE0BB48844207D10121801569
:1019E000FFF762FC0021A015FFF75EFC10BD00228E
:1019F0000288A84B98420ED0AC4B98420BD0B0F165
:101A0000804F08D0A44B984205D0A44B984202D0F6
:101A1000A34B984204D14FF68F731A404B881A4358
:101A2000A04B984207D0A04B984204D04FF6FF43FA
:101A30001A400B891A4302804B68C3620B880385E6
:101A4000944B984202D0994B984201D18B7A0386ED
:101A50000123838270474FF0FF31416000210180F4
:101A600001814180817270470185828270470A46F8
:101A7000002101884FF68F73194011430180704790
:101A800041627047C16270470146486A704701462B
:101A9000088D704721B1028842F00202028004E002
:101AA00002884FF6FD731A400280704721B1028808
:101AB00042F00402028004E002884FF6FB731A40F1
:101AC0000280704721B1028842F08002028004E067
:101AD00002884FF67F731A400280704702884FF6E3
:101AE000F7731A40028002880A4302807047028816
:101AF0004FF6FF431A40028002880A430280704773
:101B000021B1028842F00102028004E002884FF60F
:101B1000FE731A400280704770B500240022002333
:101B2000058C4FF6FE7635400584028C8388048B45
:101B30004FF68F752C40B51E2C400D882C43751E1A
:101B40002A408D892A434D882A43524DA84202D00B
:101B5000564DA84213D14FF6F7752A40CD892A4336
:101B60004FF6FB752A408D882A434FF6FF652B40C0
:101B70004FF6FF552B400D8A2B434D8A2B43838014
:101B800004838D684563028470BD70B50024002213
:101B90000023058C4FF6EF7635400584028C838850
:101BA000048B48F6FF752C404FF6FF452C400D88FE
:101BB0004FF6FF7606EA05252C434FF6DF752A40DF
:101BC0008D8906EA05152A434D8806EA05152A433C
:101BD000304DA84202D0354DA8421DD14FF67F7539
:101BE0002A40CD894FF6FF7606EA05152A434FF6BF
:101BF000BF752A408D8806EA05152A434FF6FF3542
:101C00002B404FF2FF752B400D8A06EA85052B43CA
:101C10004D8A06EA85052B43838004838D6885639E
:101C2000028470BD70B5002400220023058C4FF69D
:101C3000FF6635400584028C8388848B4FF68F7550
:101C40002C404FF6FC752C400D882C434FF6FF5569
:101C50002A408D894FF6FF7606EA05252A434D88EE
:101C600006EA05252A430B4DA84202D00F4DA84293
:101C700038D14FF2FF752A40CD894FF6FF7606EA3C
:101C800005252A434FF6FF352A408D8806EA0525AB
:101C90002A4319E000000140000400400008004011
:101CA000000C0040001000400014004000040140FF
:101CB000004001400044014000480140001800403D
:101CC000001C0040002000404EF6FF752B404DF6F2
:101CD000FF752B400D8A06EA05152B434D8A06EA4F
:101CE00005152B43838084838D68C563028470BD92
:101CF00070B5002200230024058C4EF6FF76354097
:101D00000584038C8488828B48F6FF752A404FF641
:101D1000FF452A400D884FF6FF7606EA05252A433F
:101D20004DF6FF752B408D8906EA05352B434D880E
:101D300006EA05352B43FE4DA84202D0FD4DA842D0
:101D400008D14BF6FF752C400D8A4FF6FF7606EA58
:101D500085152C43848082838D680564038470BD5F
:101D6000002101804180818081608181C181018267
:101D70004182704770B50346002000241846183091
:101D800001258D40ACB21D8CA5431D8409B10829E5
:101D90000AD100EB610005684FF68F76354005608B
:101DA0000568154305600FE00D1FC5F34E05284477
:101DB000056848F6FF763540056005684FF6FF7602
:101DC00006EA02263543056070BD416370478163B2
:101DD0007047C1637047016470470A460021018B58
:101DE0004FF68F7319401143018370470A46002153
:101DF000018B48F6FF7319404FF6FF7303EA022385
:101E00001943018370470A460021818B4FF68F7377
:101E100019401143818370470A460021818B48F69F
:101E2000FF7319404FF6FF7303EA022319438183BE
:101E300070470A460021018B4FF6F7731940114392
:101E4000018370470A460021018B4FF2FF7319404E
:101E50004FF6FF7303EA02231943018370470A46D2
:101E60000021818B4FF6F77319401143818370472E
:101E70000A460021818B4FF2FF7319404FF6FF7322
:101E800003EA02231943818370470A460021018B2C
:101E90004FF6FB7319401143018370470A46002136
:101EA000018B4FF6FF3319404FF6FF7303EA02230D
:101EB0001943018370470A460021818B4FF6FB735B
:101EC00019401143818370470A460021818B4FF6E8
:101ED000FF3319404FF6FF7303EA0223194381834E
:101EE00070470A460021018B4FF67F73194011435A
:101EF000018370470A460021018BC1F30E014FF6A2
:101F0000FF7303EA02231943018370470A46002145
:101F1000818B4FF67F7319401143818370470A46C6
:101F20000021818BC1F30E014FF6FF7303EA0223F8
:101F30001943818370470A460021018C4FF6FD73D7
:101F400019401143018470470A460021018C4FF665
:101F5000F77319401143018470470A460021018C30
:101F60004FF6DF7319404FF6FF7303EA021319436C
:101F7000018470470A460021018C4FF67F73194097
:101F80004FF6FF7303EA02131943018470470A46B0
:101F90000021018C4FF6FF5319404FF6FF7303EAFF
:101FA00002231943018470470A460021018C4FF235
:101FB000FF7319404FF6FF7303EA022319430184AC
:101FC00070470A460021018C4DF6FF7319404FF609
:101FD000FF7303EA023319430184704730B50023CD
:101FE00001248C40A3B2048C9C430484048C02FA28
:101FF00001F5ADB22C43048430BD30B50023042478
:102000008C40A3B2048C9C430484048C02FA01F536
:10201000ADB22C43048430BD828B4FF2FF331A40A3
:102020008283828B4FF6FF7303EA01231A43828374
:102030007047F0B50C461546002100220026078C9B
:102040004EF6FF7C07EA0C070784818B028C4FF663
:10205000FF7707EA043640F6FF4739404FF6FF772F
:1020600007EA052739434FF6FF7707EA0337394375
:1020700045F6FF773A4046F480573A43818302841D
:10208000F0BD828B4FF6F3731A408283828B0A4332
:1020900082837047F0B50C461546002100220026C9
:1020A000078C4FF6FF6C07EA0C070784818B028CC4
:1020B0004FF6FF7707EA04264FF60C7739404FF6C4
:1020C000FF7707EA03172F4339434FF2FF573A4090
:1020D00046F480773A4381830284F0BD028B4FF24D
:1020E000FF331A400283028B4FF6FF7303EA01238A
:1020F0001A4302837047F0B50C46154600210022B2
:102100000026078C4FF6EF7C07EA0C070784018B4B
:10211000028C4FF6FF7707EA041640F6FF47394076
:102120004FF6FF7707EA033739434FF6FF7703E0AF
:10213000000001400004014007EA052739434FF63B
:102140005F773A4046F010073A4301830284F0BDBE
:10215000028B4FF6F3731A400283028B0A43028309
:102160007047F0B50C46154600210022068C4FF64C
:10217000FE773E400684018B028C4FF60C76314090
:102180007E1C06EA03162E4331434FF6F5763240A5
:1021900044F00106324301830284F0BD70B5054668
:1021A0000C46208850B92389A28861882846FFF709
:1021B000D8FFE1882846FFF7CBFF25E020880428D8
:1021C0000AD12389A28861882846FFF794FFE18815
:1021D0002846FFF783FF17E0208808280AD12389C3
:1021E000A28861882846FFF755FFE1882846FFF757
:1021F00048FF09E02389A28861882846FFF719FF74
:10220000E1882846FFF708FF70BD0021018041806A
:10221000012181800021C180018170472DE9F041B9
:1022200005460C4600260127608808B9022600E012
:102230000026A088012801D1022700E0012720887C
:10224000A0B92389A28861882846FFF78AFFE18820
:102250002846FFF77DFF23893A4631462846FFF797
:102260004AFFE1882846FFF739FF13E02389A28857
:1022700061882846FFF73FFFE1882846FFF72EFFD9
:1022800023893A4631462846FFF76BFFE188284606
:10229000FFF75EFFBDE8F0810146486B70470146DD
:1022A000886B70470146C86B70470146086C7047E1
:1022B0000A884B881A438B881A43CB881A430B89A8
:1022C0001A434B891A438B891A43A0F8442070475C
:1022D0000021018041808180C18001814181818113
:1022E000704731B1B0F8442042F40042A0F84420D5
:1022F00005E0B0F84420C2F30E02A0F84420704775
:1023000021B1828842F00402828004E082884FF684
:10231000FB731A408280704721B1828842F001022B
:10232000828004E082884FF6FE731A4082807047F4
:102330001AB183890B43838102E083898B438381B4
:1023400070478182704702460020138A0B400BB110
:10235000012000E000207047CA430282704730B578
:102360000246002000230024158A05EA010395890E
:1023700005EA010413B10CB1012000E0002030BDDA
:10238000CA430282704741EA0203A0F8483070470E
:102390001AB183890B43838102E083898B43838154
:1023A000704721B1828842F00802828004E082886E
:1023B0004FF6F7731A408280704701894FF6F87222
:1023C0001140018170470A46002101894FF68F7341
:1023D000194011430181704730B504460D46294626
:1023E0002046FFF7F0FF208940F00700208130BD34
:1023F0002DE9F04104460D4616461F46602D06D1D4
:102400003B46012231462046FFF775FE05E03B467C
:10241000012231462046FFF7A4FE29462046FFF759
:10242000D2FF208940F007002081BDE8F08130B55F
:102430000C4600210189C9B24FF6FF7505EA032554
:10244000154325432943018130BD2DE9F04105465F
:102450000E4617469846002443463A4631462846DB
:10246000FFF7E5FF2C894FF6F870044044F00704AD
:102470004FF68F70044044F070042C81BDE8F08169
:10248000F0B504460D4616461F463B4632462946E1
:102490002046FFF7CCFF208940F480402081F0BD2A
:1024A00082884FF68F731A40828082880A43828026
:1024B000704702894FF6F8731A40028102890A4375
:1024C0000281704702894FF67F731A4002810289A8
:1024D0000A4302817047F0B50C4615461E4600219E
:1024E000002200230189028B038C4FF6F8773940D4
:1024F00021434FF6FC473A4040F201173A434FF66A
:10250000DD773B404FF6FF7707EA06172F433B4343
:10251000018102830384F0BD21B1828842F08002F0
:10252000828004E082884FF67F731A408280704771
:10253000A0F850107047000010B50446FA488442D5
:1025400008D101211020FEF7C0FE00211020FEF767
:10255000BCFE57E0F548844209D101214804FEF74A
:10256000A3FE00214FF40030FEF79EFE4AE0F04843
:10257000844209D101218804FEF796FE00214FF420
:102580008020FEF791FE3DE0EA48844209D1012116
:10259000C804FEF789FE00214FF40020FEF784FEF8
:1025A00030E0E548844209D101210805FEF77CFEB0
:1025B00000214FF48010FEF777FE23E0DF488442CD
:1025C00008D101212020FEF780FE00212020FEF707
:1025D0007CFE17E0DA48844209D101218807FEF722
:1025E00063FE00214FF08040FEF75EFE0AE0D54812
:1025F000844207D101214005FEF756FE0021600507
:10260000FEF752FE10BD2DE9FF4705460E46002499
:10261000A14600BFA046B08900B100BF2C8A24F4B7
:102620004054F08804432C82AC8941F20C6084430E
:10263000B08831890843718908430443AC81AC8A6E
:1026400024F44074B0890443AC826846FEF7BDFCB4
:10265000B548854202D0B948854202D1DDF80C90D8
:1026600001E0DDF80890A88900F4004040B109EBD2
:10267000C90000EB091031684900B0FBF1F707E031
:1026800009EBC90000EB091031688900B0FBF1F7D4
:102690006420B7FBF0F004012009642101FB1078ED
:1026A000A88900F4004040B1322000EBC800B0FB24
:1026B000F1F000F00700044308E0322000EB0810BE
:1026C0006421B0FBF1F000F00F0004432C81BDE861
:1026D000FF874FF41651016000218180C180018184
:1026E0000C21418100218181704710B502460020F4
:1026F000108A20F470600B884C8823438C88234315
:10270000CC8823431843108210BD002101804180F2
:102710008180C180704721B1828942F40052828158
:1027200004E082894DF6FF731A4082817047028B64
:1027300002F47F420283028B0A430283704721B175
:10274000828942F40042828103E08289C2F30E0250
:102750008281704721B1828A42F40062828204E061
:10276000828A4FF2FF731A4082827047C1F30802D7
:102770008280704701468888C0F308007047028A4B
:102780004FF6F0731A400282028A0A4302827047AF
:1027900021B1828942F00202828104E082894FF6EF
:1027A000FD731A408281704782894FF2FF731A408D
:1027B000828182890A4382817047028A4FF6DF73E1
:1027C0001A400282028A0A430282704721B1028AB9
:1027D00042F48042028204E0028A4BF6FF731A4000
:1027E00002827047818941F001018181704721B1E6
:1027F000828A42F00802828204E0828A4FF6F773EE
:102800001A4082827047028BD2B20283028B42EA64
:1028100001220283704721B1828A42F02002828223
:1028200004E0828A4FF6DF731A408282704721B13A
:10283000828A42F01002828204E0828A4FF6EF73AD
:102840001A4082827047828A4FF6FB731A40828256
:10285000828A0A438282704721B1828A42F0020250
:10286000828204E0828A4FF6FD731A4082827047AA
:102870001AB1838A0B43838202E0838A8B4383826B
:102880007047F0B50346002400260025002040F6DE
:102890006A17B94200D100BF1846C1F3421401F0D3
:1028A0001F06012707FA06F5012C01D10C3004E0C0
:1028B000022C01D1103000E014301AB107682F4308
:1028C000076002E00768AF430760F0BD02460020E2
:1028D000B1F5007F00D100BF13880B400BB1012080
:1028E00000E00020704701F40072B2F5007F00D1D3
:1028F00000BFCA430280704770B50246002400231F
:102900000025002040F66A16B14200D100BFC1F395
:10291000421501F01F03012606FA03F3012D13D11E
:102920009689334017E00000001001400044004049
:1029300000480040004C004000500040001401409E
:1029400000780040007C0040022D02D1168A3340FE
:1029500001E0968A33400C12012606FA04F4168828
:10296000344013B10CB1012000E0002070BD10B55F
:102970000022002340F66A14A14200D100BF0A12CF
:1029800001249440A3B2DC43048010BD0146FE4AFA
:10299000914200D10020FD4A914200D10120FC4A21
:1029A000914200D10220FB4A914200D10420FA4A10
:1029B000914200D10520F94A914200D1062070478A
:1029C00070471CB504464CB908200321012300229E
:1029D000CDE90010C021F24803F07FFC012C0AD1A0
:1029E0000820032101230022CDE900104FF4844187
:1029F000EC4803F072FC032C02D1E848FFF7E0FF3B
:102A00001CBD1CB504469CB90820032101230022EB
:102A1000CDE900104102E24803F05FFC08200321E9
:102A200001230022CDE900100421DF4803F055FC0A
:102A3000032C02D1D848FFF7C3FF1CBD1CB50446C8
:102A400044B90820032101230022CDE90010D74812
:102A500003F043FC012C09D10820032101230022AB
:102A6000CDE900108902CE4803F037FC032C02D1D7
:102A7000C848FFF7A5FF1CBD1CB504464CB907208C
:102A8000032101230022CDE900108902C84803F088
:102A900024FC012C09D10720032101230022CDE9C8
:102AA00000108902BE4803F018FC022C09D107204F
:102AB000032101230022CDE900100902BA4803F0E6
:102AC0000CFC032C02D1B248FFF77AFF1CBD1CB5E9
:102AD00004464CB90720032101230022CDE9001050
:102AE0000C21B24803F0F9FB012C09D10720032186
:102AF00001230022CDE900106021AB4803F0EDFB7B
:102B0000032C02D1A148FFF75BFF1CBD1CB5044696
:102B10004CB90720032101230022CDE9001049020E
:102B2000A24803F0DAFB012C09D10720032101237D
:102B30000022CDE90010C0219D4803F0CEFB032CFC
:102B400002D19148FFF73CFF1CBD01468E4A9142DD
:102B500000D198488D4A914200D197488C4A9142C1
:102B600000D196488B4A914200D195488A4A9142B9
:102B700000D19448894A914200D1934870472DE989
:102B8000F04F85B004460D4616461F46DDE90FABF3
:102B9000DDF838902046FFF7D8FF804601967A4846
:102BA00084420BD18948006840F0100087490860D2
:102BB0002846FFF7ABFF25208DF8000073488442BC
:102BC0000DD18248001F006840F400307F49091F82
:102BD00008602846FFF77BFF26208DF800006C4830
:102BE00084420DD17948001F006840F48020774965
:102BF000091F08602846FFF73FFF27208DF80000D7
:102C0000644884420DD17148001F006840F40020E0
:102C10006E49091F08602846FFF710FF34208DF821
:102C200000005D4884420DD16848001F006840F4F0
:102C300080106649091F08602846FFF7E2FE35202C
:102C40008DF80000554884420BD16048006840F080
:102C500020005E4908602846FFF7B3FE47208DF844
:102C60000000ADF810701FFA89F0ADF80E001FFAE1
:102C70008AF0ADF80C001FFA8BF0ADF80A0011983D
:102C800080B2ADF80800002088F80C00A08920F47C
:102C90000050A08101A92046FFF7B5FCA08940F0B3
:102CA0002000A08101208DF8030006208DF801008E
:102CB0002046FFF76BFE8DF802006846FDF7C7FE61
:102CC000012088F80C00A08940F40050A08105B0D4
:102CD000BDE8F08F7FB504460D4616462A4884426B
:102CE0000BD100200C23CDE9003002900346324680
:102CF000294603902046FFF742FF244884420BD127
:102D000000200C23CDE900300290034632462946CC
:102D100003902046FFF733FF1D4884420BD100206B
:102D20000C23CDE900300290034632462946039039
:102D30002046FFF724FF174884420BD100200C23C4
:102D4000CDE90030029003463246294603902046E2
:102D5000FFF715FF104884420BD100200C23CDE96A
:102D60000030029003463246294603902046FFF782
:102D700006FF0A48844230D100200C23CDE9003000
:102D800002900346324623E0001001400044004018
:102D900000480040004C004000500040001401403A
:102DA0000008024000180240000C024000000240EF
:102DB00000040240582000206820002078200020D5
:102DC0008820002098200020A820002044380240BD
:102DD000294603902046FFF7D2FE7FBD2DE9FF4133
:102DE00004460D4616461F46CF4884420BD10020AC
:102DF0000C23CDE9003002903B4632462946039031
:102E00002046FFF7BCFEC94884420BD100200C23AA
:102E1000CDE9003002903B463246294603902046D9
:102E2000FFF7ADFEC24884420BD100200C23CDE950
:102E3000003002903B463246294603902046FFF779
:102E40009EFEBC4884420BD100200C23CDE900300B
:102E500002903B463246294603902046FFF78FFEFC
:102E6000B54884420BD100200C23CDE900300290FC
:102E70003B463246294603902046FFF780FEAF4886
:102E800084420BD100200C23CDE9003002903B4658
:102E90003246294603902046FFF771FEBDE8FF81C8
:102EA00030B5044600252046FFF74FFE0346D8887C
:102EB00000280FDD58899988884201D10020588167
:102EC00059891868405C45B25889401C5881D88897
:102ED000401ED880E8B230BDF0B507460D463846F2
:102EE000FFF733FE0346DE885C890DE09888A04238
:102EF00000D100241868005DA84201D10120F0BD76
:102F0000601C84B2701E86B2002EEFDC0020F6E753
:102F10002DE9F04180460E46174600244046FFF753
:102F200014FE0546E88840B1697B4046FFF7D4FFB0
:102F300030B9E888A988884202D00020BDE8F08135
:102F40000AE04046FFF7ACFF3055305D697B8842B0
:102F500000D104E0601C84B2781EA042F1DC00BF06
:102F60000021601C80B2044631542046E6E710B5CB
:102F700003461846FFF7E9FD0446E08808B901203A
:102F800010BD0020FCE710B504462046FFF7DDFD2C
:102F90000346D8889988884201D1012010BD0020BD
:102FA000FCE710B504462046FFF7CFFD034600209E
:102FB000D8801881588110BD30B504460B46204694
:102FC000FFF7C3FD05466B7330BD30B503460C46B5
:102FD0001846FFF7BAFD0546287B00B930BD0EE064
:102FE00000BF188800F080000028FAD014F8010B08
:102FF000988000BF188800F080000028FAD0207860
:103000000028EDD100BFE9E7F0B503460D461646AE
:103010001846FFF79AFD0746387B00B9F0BD00243B
:103020000FE000BF188800F080000028FAD0285D6B
:10303000988000BF188800F080000028FAD0601C3B
:1030400084B2B442EDDB00BFE8E7C28883889A42CD
:103050000EDA028983889A4201D100220281038913
:103060000268D1540289521C0281C288521CC2805B
:10307000704710B52C48008800F0200070B12A4835
:1030800083882FA20021084601F087F800F0DAFFBC
:1030900025488088C1B22B48FFF7D7FF10BD00B587
:1030A0002248008800F0200030B12048001D008830
:1030B000C1B22548FFF7C9FF00BD00B51C48008814
:1030C00000F0200030B11A48001D0088C1B21F482E
:1030D000FFF7BBFF00BD00B51648008800F02000D8
:1030E00030B11448001D0088C1B21948FFF7ADFF88
:1030F00000BD00B51048008800F0200028B10E483F
:103100008088C1B21348FFF7A0FF00BD00B50B488F
:10311000008800F0200030B10848001D0088C1B2CE
:103120000D48FFF792FF00BD001001400044004031
:1031300000480040004C0040005000400014014096
:1031400025630000582000206820002078200020FF
:103150008820002098200020A820002010B5002101
:10316000B148FEF734FE10BD1CB50020AF49088001
:103170004EF6E66048800220AD49087016E0AC4883
:103180000078401EA94931F8100042F210714843FE
:1031900042F6631190FBF1F0A449A54A127821F898
:1031A0001200A3480078401CA1490870A04800788C
:1031B0000D28E4DB9F4800F02AFA03219D4800F027
:1031C00059F99D4800689D49B0FBF1F0401E84B25A
:1031D0004FF4807000909A4803880022214692485C
:1031E00000F046FB00209749097801236022CDE9D1
:1031F00000108D49042000F056FBFFF7AFFF1CBD07
:1032000010B58F48008810B9FFF7A8FF0BE08C4875
:1032100000888C4909784843642190FBF1F42146E9
:103220008148FEF7D4FD10BD10B502460B460021C3
:103230001AB1501C08B10C2A01DD002010BD7B48DA
:1032400030F8121004E0084601EBD074C4F34F01CB
:103250001800A3F10104E3B2F5D10846EEE710B57A
:103260000446774804800088002805DD74480188FA
:103270006D48FEF707FC01E0FFF770FF10BD38B5A1
:1032800071480078002803DC70480078002826DDAB
:103290006F480088401E6E49088008460088002854
:1032A00078D16948007808B9012000E0002066491B
:1032B00008700846007810B1FFF7A2FF01E0FFF7A1
:1032C0004DFF64480088624908805F480078002804
:1032D00060D15E480078401E5C4908705AE05E4844
:1032E0000078002856D05D4800685D49098800EBE9
:1032F0004100008800909DF90000401C20B900208A
:1033000055490870FFF72AFF56480088002805DD58
:1033100054480088401E534908803AE052480088CB
:10332000504908805148008898B15148007808B940
:10333000012000E000204E4908700846007830B1B6
:103340004A48008847490880FFF708FF01E0FFF777
:1033500057FF4648008810B14548007810B14348EF
:103360000088B0B93E480088401C80B23C490880C3
:103370003A49096801EB4000008800909DF801106F
:103380009DF90000FFF750FF0446FFF768FFFFF7C5
:1033900037FF00BF38BD00202F490870704770B557
:1033A00005460C4605B104B970BD2848057028488B
:1033B000048028480480012023490870FFF720FF7B
:1033C000FFF7E9FF00BFEFE7642800DD64201D4937
:1033D000087070472DE9F04104460D4616460CB9B9
:1033E000BDE8F081002018490870184908700120D4
:1033F0001949087000201A4908801B48058019489F
:1034000005801A4806800020194908701348046096
:10341000617894F90000FFF707FF0746FFF71FFFE9
:10342000FFF7EEFE00BFDBE7004001403043002025
:10343000D1200020FC9A00083410002040420F00E8
:10344000C0200020BF200020B8200020BE20002087
:10345000BC200020BA200020C2200020C420002070
:10346000C8200020CC200020CA200020CE20002030
:10347000D020002070B504460D46A088012804D154
:10348000EAB200212068FDF75EFCA088022804D182
:10349000EAB201212068FDF756FCA088042804D177
:1034A000EAB202212068FDF74EFCA088082804D16A
:1034B000EAB203212068FDF746FCA088102804D159
:1034C000EAB204212068FDF73EFCA088202804D140
:1034D000EAB205212068FDF736FCA088402804D117
:1034E000EAB206212068FDF72EFCA088802804D1CE
:1034F000EAB207212068FDF726FCA088B0F5807F9E
:1035000004D1EAB208212068FDF71DFCA088B0F5BF
:10351000007F04D1EAB209212068FDF714FCA088DD
:10352000B0F5806F04D1EAB20A212068FDF70BFCE8
:1035300070BD10B504462068C0F30901002944D1CC
:103540008012A0F5801080380B283ED2DFE800F012
:10355000060B10151A1F24292E33380001210846A6
:10356000FDF704FE31E001210220FDF7FFFD2CE014
:1035700001210420FDF7FAFD27E001210820FDF7D5
:10358000F5FD22E001211020FDF7F0FD1DE00121F5
:103590002020FDF7EBFD18E001214020FDF7E6FDBE
:1035A00013E001218020FDF7E1FD0EE0012108027A
:1035B000FDF7DCFD09E001214802FDF7D7FD04E03D
:1035C00001218802FDF7D2FD00BF00BF10BD1CB570
:1035D00004462046FFF7ADFFA088009001208DF83B
:1035E000040000208DF8060003208DF8050000205F
:1035F0008DF8070069462068FDF71AFB26488442CB
:1036000004D1A18800222068FDF79DFB1CBD1CB5DC
:1036100004462046FFF78DFFA088009002208DF819
:10362000040000208DF8060002208DF8050000201F
:103630008DF8070069462068FDF7FAFA1CBD70B5E1
:1036400004460D46012D03D1A1882068FDF76CFBCF
:103650001DB9A1882068FDF769FB70BD1CB5044643
:103660002046FFF766FFA088009000208DF8040038
:103670008DF806008DF8050001208DF807006946D9
:103680002068FDF7D5FA1CBD10B50446A188206856
:10369000FDF730FB10BD00004499000830B500BFB5
:1036A00033480068334AB0FBF2F1481EB0F1807F26
:1036B00001D301201BE0481E4FF0E022506150175B
:1036C0000F22002807DA13071D0E2B4B00F00F0402
:1036D000241F1D5503E013071C0E284B1C5400BF6C
:1036E00000204FF0E02290610720106100200028A8
:1036F000D6D130BD2248006820B121480068401E64
:103700001F49086070471F4800681F49884205D25A
:103710001C480068401C1B49086002E00020194951
:1037200008607047174800687047164800684FF4F3
:103730007A71B0FBF1F070471149086000BF104981
:1037400009680029FBD170474FF47A700C49086072
:1037500000BF0B4800680028FBD1704700B5024647
:1037600001E0FFF7F1FF1000A2F10102F9D100BD65
:103770003410002040420F0018ED00E000E400E0AB
:10378000D4200020D82000208096980010B5044650
:103790007048844204D101210846FDF741FD66E0EE
:1037A000B4F1804F04D101210846FDF728FD5EE009
:1037B0006948844204D101210220FDF720FD56E032
:1037C0006648844204D101210420FDF718FD4EE033
:1037D0006348844204D101210820FDF710FD46E032
:1037E0006048844204D101211020FDF708FD3EE02D
:1037F0005D48844204D101212020FDF700FD36E020
:103800005A48844204D101210220FDF709FD2EE02F
:103810005748844204D101210804FDF701FD26E048
:103820005448844204D101214804FDF7F9FC1EE00C
:103830005148844204D101218804FDF7F1FC16E0CF
:103840004E48844204D101214020FDF7D8FC0EE00F
:103850004B48844204D101218020FDF7D0FC06E0D2
:103860004848844203D101218015FDF7C8FC10BDF2
:103870002DE9FE4307460C4615461E46DDF8288016
:103880003846FFF783FF0196ADF80880ADF8004099
:10389000ADF8025000208DF80A0069463846FEF760
:1038A000A6F8BDE8FE832DE9F04385B004460D4639
:1038B00016461F46DDE90C89ADF80C90ADF80060A6
:1038C000ADF80270CDF808802248854202D0274822
:1038D000854208D10020ADF80E00ADF81000ADF81B
:1038E0001200ADF804003CB969462846FEF714F909
:1038F00008212846FEF79DFA042C07D16946284680
:10390000FEF743F908212846FEF79CFA082C07D158
:1039100069462846FEF786F908212846FEF79FFAF1
:103920000C2C07D169462846FEF7E2F90821284603
:10393000FEF79EFA01212846FEF7D3FC0121284616
:10394000FEF7C0F801212846FEF7DAF805B0BDE819
:10395000F083000000000140000400400008004027
:10396000000C004000100040001400400004014022
:103970000040014000440140004801400018004060
:10398000001C00400020004010B50948FFF766FE0B
:103990000848FFF763FE0848FFF760FE0748FFF797
:1039A0005DFE0748FFF75AFE0648FFF757FE10BDB9
:1039B000E49A0008F49A00083C9A0008EC9A00087F
:1039C000349A0008449A000810B50348FFF7FFFD39
:1039D0000248FFF7FCFD10BD44990008D498000888
:1039E00000B587B0F648FFF7F2FDF648FFF7EFFDA8
:1039F00001210220FDF7BAFB01218803FDF7FFFB3F
:103A00004FF42040009002208DF8040000208DF833
:103A1000060003208DF8050000208DF80700694698
:103A2000E948FDF705F905220D21E748FDF78BF977
:103A300005220F21E448FDF786F9E448FFF7C7FDAA
:103A40000020ADF808004FF48270ADF80A000020A5
:103A5000ADF80C000220ADF80E000120ADF810000A
:103A60004002ADF812000020ADF81400ADF81600C9
:103A700002A9D748FDF71AFD0121D548FDF710FE30
:103A80000021D348FDF78FFE0021D148FDF746FE07
:103A900007B000BD10B504464FF48051CA48FDF789
:103AA00045F91021CB48FDF741F900BF0221C84874
:103AB000FDF7C0FE0028F9D02146C548FDF771FE8C
:103AC00000BF0121C248FDF7B5FE0028F9D0C0486B
:103AD000FDF764FE4FF48051BB48FDF725F910BD9A
:103AE00010B504464FF48051B748FDF71FF9102177
:103AF000B848FDF719F900BF0221B548FDF79AFE55
:103B00000028F9D02146B248FDF74BFE00BF012145
:103B1000AF48FDF78FFE0028F9D0AD48FDF73EFE17
:103B20004FF48051A848FDF7FFF810BD10B50120F3
:103B3000FFF7B0FF1120FFF7ADFFB120FFF7AAFF9D
:103B40000120FFF7CDFF2C20FFF7CAFF2D20FFF744
:103B5000C7FFB220FFF79EFF0120FFF7C1FF2C2017
:103B6000FFF7BEFF2D20FFF7BBFFB320FFF792FF4B
:103B70000120FFF7B5FF2C20FFF7B2FF2D20FFF744
:103B8000AFFF0120FFF7ACFF2C20FFF7A9FF2D208E
:103B9000FFF7A6FFB420FFF77DFF0720FFF7A0FF88
:103BA000C020FFF777FFA220FFF79AFF0220FFF760
:103BB00097FF8420FFF794FFC120FFF76BFFC5201C
:103BC000FFF78EFFC220FFF765FF0A20FFF788FF8F
:103BD0000020FFF785FFC320FFF75CFF8A20FFF777
:103BE0007FFF2A20FFF77CFFC420FFF753FF8A20C6
:103BF000FFF776FFEE20FFF773FFC520FFF74AFFC0
:103C00000E20FFF76DFF3620FFF744FFC820FFF7B7
:103C100067FFE020FFF73EFF0220FFF761FF1C2057
:103C2000FFF75EFF0720FFF75BFF1220FFF758FF4B
:103C30003720FFF755FF3220FFF752FF2920FFF70B
:103C40004FFF2D20FFF74CFF2920FFF749FF2520CC
:103C5000FFF746FF2B20FFF743FF3920FFF740FF18
:103C60000020FFF73DFF0120FFF73AFF0320FFF799
:103C700037FF1020FFF734FFE120FFF70BFF032091
:103C8000FFF72EFF1D20FFF72BFF0720FFF728FF70
:103C90000620FFF725FF2E20FFF722FF2C20FFF73D
:103CA0001FFF2920FFF71CFF2D20FFF719FF2E20F3
:103CB000FFF716FF2E20FFF713FF3720FFF710FF47
:103CC0003F20FFF70DFF0020FFF70AFF0020FFF75E
:103CD00007FF0220FFF704FF1020FFF701FF2A2053
:103CE000FFF7D8FE0020FFF7FBFE0020FFF7F8FEED
:103CF0000020FFF7F5FE7F20FFF7F2FE2B20FFF7F5
:103D0000C9FE0020FFF7ECFE0020FFF7E9FE0020CF
:103D1000FFF7E6FE9F20FFF7E3FE3A20FFF7BAFE2B
:103D20000520FFF7DDFE2920FFF7B4FE10BD10B51A
:103D30004FF400712848FCF7F9FF0120FFF70EFD52
:103D40004FF400712448FCF7EFFF0120FFF706FD58
:103D500010BD70B504462A20FFF79CFE0020FFF737
:103D6000BFFE0020FFF7BCFE0020FFF7B9FE7F205A
:103D7000FFF7B6FE2B20FFF78DFE0020FFF7B0FE09
:103D80000020FFF7ADFE0020FFF7AAFE9F20FFF7FF
:103D9000A7FE2C20FFF77EFE002507E02012FFF78C
:103DA0009FFEE0B2FFF79CFE681C85B2B5F5A04F00
:103DB000F4DB70BD094908807047094908807047E5
:103DC000149A0008EC98000800040240AC9900081E
:103DD000003800400000024000080240E0300020AF
:103DE000DE300020FB49088070472DE9F04780460F
:103DF0000E4617469946FFF7F3FDFFF798FFFFF7CA
:103E000095FE2C20FFF746FE3046FFF7EBFF3846C5
:103E1000FFF7D3FF4846FFF7CDFF3046FFF799FF86
:103E2000ED4880F80080002431E000252BE02020C0
:103E300004EB8401E94A02EB4101485504EB84009C
:103E4000E74901EB800020F8157004EB8400E54998
:103E500001EB800020F81560202004EB8401E24A89
:103E600002EB4101485504EB8400E04901EB80007E
:103E700020F8157004EB8400DD4901EB800020F888
:103E80001560681CC5B20A2DD1DB601CC4B2142CAD
:103E9000CBDBBDE8F0870120D649087070470020D1
:103EA000D44908707047CB4800887047D2480088D2
:103EB0007047D24800887047C7480078704770B58F
:103EC000002420E000251AE0202004EB8401C64AEB
:103ED00002EB41014855C848008804EB8401C34AFD
:103EE00002EB810121F81500BA48008804EB840137
:103EF000BF4A02EB810121F81500681CC5B20A2DEA
:103F0000E2DB601CC4B2142CDCDBB2480088FFF793
:103F100020FF70BD10B504462046E11704EB9171F7
:103F20008910A4EB8101AC4A1170FFF7C8FF10BDE6
:103F3000A948017801EBD1704010A1EB400008B115
:103F4000142070471020FCE7A348017801EBD170E2
:103F50004010A1EB400008B1082070470A20FCE7A0
:103F600070B505460C462A20FFF794FD0020FFF7A8
:103F7000B7FD2846FFF7B4FD0020FFF7B1FD691C2F
:103F8000C8B2FFF7ADFD2B20FFF784FD0020FFF73F
:103F9000A7FD2046FFF7A4FD0020FFF7A1FD611C4F
:103FA000C8B2FFF79DFD2C20FFF774FD70BD2DE911
:103FB000F04107460C4615461E462A20FFF76AFDCB
:103FC0000020FFF78DFD3846FFF78AFD0020FFF740
:103FD00087FD2846FFF784FD2B20FFF75BFD0020BF
:103FE000FFF77EFD2046FFF77BFD0020FFF778FD01
:103FF0003046FFF775FD2C20FFF74CFDBDE8F08142
:1040000010B5014600201AE0202200EB8003734C1B
:1040100004EB43035A54784A128800EB8003704C37
:1040200004EB830323F811206A4A128800EB800313
:104030006C4C04EB830323F81120421CD0B21428EB
:10404000E2DB10BD10B5002404E02046FFF7D8FFE6
:10405000601CC4B20A2CF8DB10BD10B5FFF72FFFAF
:10406000FFF7F0FF5C490978481CC11700EB91711C
:104070008910A0EB8101584A117010BD70B504463B
:104080000D4616465448007830B1012809D0022860
:104090000ED003281CD114E029462046FFF760FF0C
:1040A00016E0C5F17F01C8B22146FFF759FF0FE0C6
:1040B000C5F19F02D1B2C4F17F02D0B2FFF750FF29
:1040C00006E0C4F19F00C1B22846FFF749FF00BFD8
:1040D00000BF3012FFF704FDF0B2FFF701FD70BD25
:1040E00030B5024602EB82033F4C04EB43035B5CBA
:1040F00002EB8204394D05EB4404645CA3421FD1FA
:1041000002EB8203394C04EB830333F8113002EBEA
:104110008204334D05EB840434F81140A3420FD1DF
:1041200002EB8203324C04EB830333F8113002EBD1
:1041300082042C4D05EB840434F81140A34201D0D5
:10414000012300E00023184602EB8203234C04EB1A
:1041500043035B5C02EB8204234D05EB4404635490
:1041600002EB82031E4C04EB830333F8113002EBA5
:1041700082041E4D05EB840424F8113002EB820307
:10418000184C04EB830333F8113002EB8204184D12
:1041900005EB840424F8113030BD0FB4F0B5C1B084
:1041A00005460E460027002449A8009001A8009A61
:1041B000489902F005FA0020009001AC6CE02078EC
:1041C0005B281DD114F8010C5C2819D00127641C50
:1041D00061E00000DC300020E23000204C43002091
:1041E000DC440020FC470020144400206C460020E2
:1041F0008C490020E3300020DE300020E030002039
:1042000020785D2806D114F8010C5C2802D0002724
:10421000641C40E020780D2802D020780A2801D1C3
:10422000641C38E0142D01DC0A2E01DD641C33E02F
:1042300020785C2806D160785B2802D060785D2801
:1042400000D1641C14F8010B05EB8501FE4A02EB5A
:104250004101885517B1FD48008801E0FC480088FD
:1042600005EB8501FB4A02EB810121F81600FA48B3
:10427000008805EB8501F94A02EB810121F816005F
:10428000142D03DB0025701CC6B201E0681CC5B20A
:104290000A2E00DB002600BF207800288FD141B015
:1042A000F0BC5DF814FB2DE9F05F0026EC480078C7
:1042B00008B9BDE8F09F002468E0002562E005EB46
:1042C0008500E44901EB800030F8140000F4004060
:1042D00008B1402000E0002005EB8501DD4A02EB3B
:1042E000810131F8141001F4806109B1202100E04E
:1042F0000021084305EB8501D64A02EB810111F844
:10430000141001F0100109B1102100E00021084350
:1043100005EB8501D34A02EB4101085505EB850009
:10432000CE4901EB800030F8140000F4004008B1E1
:10433000042000E0002005EB8501CA4A02EB4101A0
:10434000095D084305EB8501C44A02EB810131F8A0
:10435000141001F4806109B1022100E0002108433A
:1043600005EB8501BD4A02EB810111F81410C1F380
:104370000011084305EB8501BA4A02EB41010855DB
:10438000681C05B2102D9ADB601C04B20A2C94DB69
:10439000B548007830B101287ED002287DD00328AE
:1043A0007CD1C5E1002488E0002581E0E1B2E8B2DB
:1043B000FFF796FE002879D0012605E0A8191028FD
:1043C00000DB0BE0701C06B2A819102806DAE1B277
:1043D000AA19D0B2FFF784FE0028EFD100BF04F184
:1043E000010C4FF0010ECEEB0C1C0CF0FF0305EBA3
:1043F000060CCEEBCC0C0CF0FF024FEA047C4FEA2B
:104400001C614FEAC56C4FEA1C60FFF7D0FDA24665
:104410004FF000083FE0002736E03846F91707EB79
:10442000517105EBE1010FFA81F9F91707EB5171B1
:10443000C910A7EBC1028021114109EB8902824B0F
:1044400003EB420212F80A2008EB0212874B9A5C37
:10445000114039B109EB89017E4A02EB810131F843
:104460001A1006E009EB89017C4A02EB810131F860
:104470001A108B464FEA2B20FFF732FB0BF0FF00A0
:10448000FFF72EFB781C07B2B7EBC60FC5DB08F1B0
:1044900001000FFA80F803E013E0A1E0D7E105E0A6
:1044A000B8F1100FB7DB701E284405B2681C05B2C6
:1044B000102DFFF67BAF601C04B20A2CFFF674AF20
:1044C000C5E1002588E0072481E0E1B2E8B2FFF70A
:1044D00007FE002879D0012604E0A01B00D50AE0E1
:1044E000701C06B2A01B06D4A21BD1B2E8B2FFF723
:1044F000F7FD0028F1D100BF05F1010C4FF0010ECE
:10450000CEEBCC0C0CF0FF03C4F1070CB444CEEBA3
:104510000C1C0CF0FF024FEAC56C4FEA1C61C4F1A1
:10452000070C4FEA0C7C4FEA1C60FFF740FDA946E0
:10453000002745E04FF000083DE040464FEAE871B3
:1045400008EB1171A4EB21110FFA81FA4FEAE8711F
:1045500008EB11710911A8EB011209EB89013A4B23
:1045600003EB410111F80A10102303EB0111891A22
:10457000491E3E4A515C80223A41114039B109EB53
:104580008901344A02EB810131F81A1006E009EB87
:104590008901324A02EB810131F81A108B464FEA49
:1045A0002B20FFF79DFA0BF0FF00FFF799FA08F1B7
:1045B00001000FFA80F8B8EB061FBEDB781C07B2CB
:1045C000082FB7DB701E201A04B2601E04B2002C44
:1045D000BFF67BAF681C05B2142DFFF674AF36E151
:1045E0000924A1E00F259AE0E1B2E8B2FFF778FDD7
:1045F000002872D0012604E0A81B00D50AE0701C38
:1046000006B2A81B06D4E1B2AA1BD0B2FFF768FD20
:104610000028F1D100BFC4F10A0C4FF0010ECEEB1F
:104620000C1C0CF0FF03C5F10F0CB444CEEBCC0C0A
:104630000CF0FF02C4F1090C4FEA0C7C4FEA1C613C
:10464000C5F10F0C14E000004C430020E0300020C6
:10465000DE300020DC440020DC300020FC4700205D
:10466000E33000201C4B0020E2300020DC20002042
:104670004FEACC6C4FEA1C60FFF799FCA2464FF062
:10468000000844E000273BE03846F91707EB51717A
:10469000A5EBE1010FFA81F9C8F10F0109EB8902DD
:1046A000CB4B03EB420212F80A2001EB0211C94A7C
:1046B000515CFA1707EB5272D210A7EBC202C2F19B
:1046C000070280231341194041B109EB8901C24A15
:1046D00002EB810131F81A1007E01EE009EB8901B5
:1046E000BE4A02EB810131F81A108B464FEA2B20AB
:1046F000FFF7F6F90BF0FF00FFF7F2F9781C07B2AD
:10470000B7EBC60FC0DB08F101000FFA80F8B8F173
:10471000100FB7DB701E281A05B2681E05B2002DF7
:10472000BFF662AF601E04B2002CBFF65BAF8EE036
:10473000132588E0002481E0E1B2E8B2FFF7D0FC65
:1047400078B3012605E0A019082800DB0BE0701CF7
:1047500006B2A019082806DAA219D1B2E8B2FFF70A
:10476000BFFC0028EFD100BFC5F1140C4FF0010EC3
:10477000CEEBCC0C0CF0FF0304EB060CCEEB0C1CC8
:104780000CF0FF02C5F1130C4FEACC6C4FEA1C6130
:104790004FEA047C4FEA1C60FFF709FCA94600279A
:1047A00045E049E04FF000083CE040464FEAE87140
:1047B00008EB117104EB21110FFA81FA4FEAE8714D
:1047C00008EB11710911A8EB011209EB8901804B6B
:1047D00003EB410111F80A1002EB01117D4A515C13
:1047E000C7F1070280231341194039B109EB890150
:1047F000794A02EB810131F81A1006E009EB8901D0
:10480000764A02EB810131F81A108B464FEA2B20D1
:10481000FFF766F90BF0FF00FFF762F908F10100FE
:104820000FFA80F8B8EB061FBFDB781C07B2082F21
:10483000B8DB701E204404B2601C04B2082CFFF6E2
:104840007BAF681E05B2002DBFF674AF00BF00BF7E
:1048500000BF2EE510B50021002000BF16E00121A9
:1048600011E05F4A12685F4B5F4C246843F82420D4
:104870005D4A1268521C5C4B1A605C4A1268D21C7A
:104880005A4B1A60491C8029EBDB401CA028E6DB50
:1048900010BD70B556480078012845D155480068CC
:1048A00080282BDA4F4B544C248853F82430C3F320
:1048B000C4434C4C504D2D8854F825404FF4FC65B2
:1048C00005EA54142343474C4B4D2D8854F825409A
:1048D0004FF4784505EA042443EA0402474B19786B
:1048E000444B1878FFF7CAFB43480088401C4249F4
:1048F000088040480068401C3E4908603D48006808
:104900007F2807D13D480068401C3C4908600020D2
:104910003849086039480068A02805D18120354908
:10492000086000203249087070BD70B534480078C6
:1049300010BB01241AE0334800684FF4FC6101EA1F
:10494000501030490968C1F3C44108432D49096832
:104950004FF4784202EA012108432B4941F8240030
:104960002A480068C01C29490860641C802CE2DBCE
:104970000120234908702AE025480068802811DAC0
:10498000214D234B1B685B1C35F823309AB2214B19
:1049900019781F4B1878FFF771FB1D480068401C01
:1049A0001B4908601A4800687F2809D11948006827
:1049B000401C18490860002015490860104908701B
:1049C00014480068A02802D181201149086070BDF8
:1049D0004C430020DC200020DC440020FC47002069
:1049E000F0300020E44B0020EC300020E8300020C4
:1049F00000310020F8300020F4300020FC3000208E
:104A0000103100201431002064890120043100207D
:104A1000083100200C31002001460022FE4B1A60B4
:104A2000002007E0002301F1F40252F82020D375A2
:104A3000421CD0B291F81C218242F3DC704770B561
:104A400005460C4622460021F448FEF743F90120B2
:104A5000F34908702846FFF7DFFFF248006840F08E
:104A60000100F04908600846006840F04000086016
:104A70000846006840F0020008600846006840F000
:104A8000200008600846006840F0040008600846FE
:104A9000006840F0080008600846006840F0100018
:104AA00008600846006840F080000860084600681A
:104AB00040F4807008600846006840F400700860A8
:104AC0000846006840F4806008600846006840F4CA
:104AD000004008600846006840F40060086008462E
:104AE000006840F4805008600846006840F40050B8
:104AF00008600846006840F4804008600846006886
:104B000040F4003008600846006840F480300860D7
:104B10000846006840F48020086070BD0246BE4828
:104B20000068C0490968884211D1002109E002F1FA
:104B3000F40050F82100C07D08B900207047481CDF
:104B4000C1B292F81C018842F1DC0120F6E7002096
:104B5000F4E710B503461846FFF7E0FF002863D0DE
:104B60000020AF490870B04890ED000A83ED000ABC
:104B700090ED010A83ED010A007A1872AA48407A82
:104B80005872A94890ED030A83ED030A0069186181
:104B9000A54890ED060A83ED060A818A9982807DF8
:104BA0009875A148007F18779F4890ED080A83ED1B
:104BB000080A90ED090A83ED090A90ED0B0A83EDCE
:104BC0000B0A90ED0A0A83ED0A0A90F8300083F888
:104BD0003000002407E094483130015D03F13100DA
:104BE0000155601CC4B20C2CF5DB8F4890F83D00D9
:104BF00083F83D00002411E004EB440103F13E0082
:104C000000EB410104EB440287483E3000EB4200D8
:104C100002680A6080888880601CC4B2182CEBDBB4
:104C2000002083F8F20010BD7D48007818B1022002
:104C300083F8F200F7E7012083F8F20000BFF2E703
:104C400010B50246002000230B600AE012F8013B79
:104C5000303B0C6804EB840403EB44030B60431CFF
:104C6000D8B21378302B02DB1378392BEEDD10BD70
:104C700010B50246012000E050430B00A1F10104F1
:104C8000E1B2F9D110BD10B5024607E011F8013BC1
:104C900012F8014BA34201D0002010BD0878002873
:104CA000F4D10120F9E7F0B52DED0C8B81B006466B
:104CB0005E48007800282ED15DA15F48FFF7E3FF32
:104CC00018B100205D4908701DE05DA15A48FFF74A
:104CD000DAFF18B101205949087014E05AA156486A
:104CE000FFF7D1FF18B10220544908700BE058A11A
:104CF0005148FFF7C8FF18B103205049087002E07F
:104D000004204E4908704C49534801F06BFC01B037
:104D1000BDEC0C8BF0BD002521E006F1F40050F84D
:104D200025104D48FFF7AFFFB8B106F1F40050F879
:104D30002500C0793D49097888420ED106F1F40179
:104D400051F8251001F108003B4901F04BFC01210D
:104D500006F1F40050F82500C175681CC5B296F83C
:104D60001C01A842D9DC314800783449097840EA6E
:104D7000411044284FD019DC09286FD007DC0828DF
:104D80006DD2DFE800F06CFD32C7D9FCFBFA2928B0
:104D900066D006DC22287DD027287CD028285ED14A
:104DA000EFE2422878D04328F9D1FDE34C2874D0B3
:104DB0000CDCA0F145000728E2D2DFE810F0160471
:104DC0001704180419041A041B041C0450287CD06E
:104DD00006DC4D287AD04E2879D04F28DFD160E309
:104DE000512875D06328DAD1FCE369461248FFF7F1
:104DF00027FF044664210098B0FBF1F000EE100A92
:104E0000B8EE400A084880ED000A0098B0FBF1F2C5
:104E100001FB120025E0E7E32041002000100140E3
:104E20002841002024410020788B012018410020D7
:104E30002447504747410000688B01201D41002056
:104E4000244750524D43000024475047534100002F
:104E500024475047535600002941002003E1FCE35A
:104E600045E200EE100AF8EE400A9FEDFE1A80EED1
:104E7000810AFD48D0ED000A30EE200A80ED000ADC
:104E8000611CC9B20C46F94A88186946FFF7D8FE7A
:104E9000044603E065E2CDE195E3ADE321460A2057
:104EA000FFF7E6FE074604F0BFF941EC1D0B9FED4E
:104EB000F00B53EC102B04F0CBF941EC1B0B0098DA
:104EC00004F0B2F941EC1C0B03E0A2E295E395E398
:104ED0002FE353EC1B2B04F009F841EC190BE248CB
:104EE00090ED000A10EE101A084604F071FC41EC37
:104EF0001A0B53EC192B03F051FF41EC180B03F084
:104F00001BFFD9490860DC48006840F00100DA491D
:104F10000860A4E3D5480078532806D1D24890ED24
:104F2000000AB1EE400A80ED000AD348006840F064
:104F30004000D149086092E36946CC48FFF780FE03
:104F4000044664210098B0FBF1F000EE100AB8EEC0
:104F5000400AC54880ED010A0098B0FBF1F201FB60
:104F6000120000EE100AF8EE400A9FEDBE1A80EE25
:104F7000810ABD48D0ED010A03E058E065E044E055
:104F800011E130EE200A80ED010A611CC9B20C4625
:104F9000B64A88186946FFF753FE044621460A20A0
:104FA000FFF766FE074604F03FF941EC1D0B9FED4D
:104FB000B00B53EC102B04F04BF941EC1B0B009899
:104FC00004F032F941EC1C0B53EC1B2B03F08EFF69
:104FD00041EC190BA44890ED010A10EE101A084696
:104FE00004F0F6FB41EC1A0B53EC192B03F0D6FE40
:104FF00041EC180B03F0A0FE9B4948609E480068F6
:1050000040F002009C49086029E39848007857283E
:1050100006D1954890ED010AB1EE400A80ED010AF3
:105020009548006840F020009349086017E36946FE
:105030008E48FFF705FE8C49009808728E4800687C
:1050400040F004008C49086009E369468748FFF78F
:10505000F7FD8549009848728748006840F00800CD
:1050600085490860FBE2814800782D284FD16946C8
:105070007E48401CFFF7E4FD04469DED000AB8EEB3
:10508000400A794880ED030A601CC4B2611CC9B2B1
:105090000C46764A88186946FFF7D2FD0446214639
:1050A0000A20FFF7E5FD074604F0BEF841EC1D0BB2
:1050B0009FED720B53EC102B04F0CAF841EC1B0B64
:1050C000009804F0B1F841EC1C0B53EC1B2B03F0DF
:1050D0000DFF41EC190B644890ED030A10EE101A15
:1050E000084604F075FB41EC1A0B53EC192B03F046
:1050F00055FE41EC180B03F01FFE5B49C8600846E3
:1051000090ED030AB1EE400A80ED030A44E06946DF
:105110005648FFF795FD04469DED000AB8EE400A9B
:10512000514880ED030A611CC9B20C464F4A8818E9
:105130006946FFF785FD044621460A20FFF798FDE2
:10514000074604F071F841EC1D0B9FED4C0B53EC3E
:10515000102B04F07DF841EC1B0B009804F064F870
:1051600041EC1C0B53EC1B2B03F0C0FE41EC190B64
:105170003D4890ED030A10EE101A084604F028FB93
:1051800041EC1A0B53EC192B03F008FE41EC180B01
:1051900003F0D2FD3449C8603748006840F0100081
:1051A000354908605BE269463048FFF749FD04462F
:1051B00064210098B0FBF1F201FB12012A488174CE
:1051C0009DED000AB8EE400ADFED2E0A20EE200A1F
:1051D000BDEEC00A10EE100A642190FBF1F201FB53
:1051E0001200C1B2204841749DED000AB8EE400A99
:1051F000DFED250A20EE200ABDEEC00A10EE100AEF
:10520000642190FBF1F201FB120017490874611C44
:10521000C9B20C46154A88186946FFF711FD009877
:10522000C1B21148C1741448006840F080001249AE
:10523000086014E269460D48FFF702FD04469DED43
:10524000000AB8EE400A084880ED060A611CC9B29F
:105250000C46064A88186946FFF7F2FC04462146C8
:105260000A2013E000007042788B0120688B012037
:105270000000000000004E4020410020000000001F
:105280000000F03F0AD7233C17B7D138FFF7F0FCF6
:10529000074603F0C9FF41EC1B0B1FED080B53EC55
:1052A000102B03F0D5FF41EC190B9DED000AB8EE71
:1052B000400A10EE100A04F08BFA41EC1A0B53EC82
:1052C000192B03F013FE41EC180B03F035FD00EE33
:1052D000100AFE48D0ED060A30EE200A80ED060ADC
:1052E000FB48006840F48070F9490860B7E16946FE
:1052F000F848FFF7A5FC64210098B0FBF1F201FB30
:105300001201F24881759DED000AB8EE400A5FED8A
:10531000230A20EE200ABDEEC00A10EE100A642116
:1053200090FBF1F201FB1200C1B2E84841759DED1E
:10533000000AB8EE400A5FED2C0A20EE200ABDEE0E
:10534000C00A10EE100A642190FBF1F201FB12007A
:10535000DE490875DE48006840F40070DC490860EA
:105360007DE1DC480078412801D1012000E00020E7
:10537000D6490877D648006840F48060D449086070
:105380006DE16946D348FFF75BFC04469DED000ADA
:10539000B8EE400ACD4880ED080A611CC9B20C463F
:1053A000CC4A88186946FFF74BFC044621460A2080
:1053B000FFF75EFC074603F037FF41EC1B0B1FEDC8
:1053C000510B53EC102B03F043FF41EC190B9DEDF7
:1053D000000AB8EE400A10EE100A04F0F9F941ECA8
:1053E0001A0B53EC192B03F081FD41EC180B03F061
:1053F000A3FC00EE100AB548D0ED080A30EE200AF2
:1054000080ED080AB248006840F40040B0490860E6
:1054100025E16946AF48FFF713FC04469DED000AFD
:10542000B8EE400AA94880ED090A611CC9B20C46D1
:10543000A84A88186946FFF703FC044621460A205B
:10544000FFF716FC074603F0EFFE41EC1B0B1FEDC8
:10545000750B53EC102B03F0FBFE41EC190B9DED8B
:10546000000AB8EE400A10EE100A04F0B1F941EC5F
:105470001A0B53EC192B03F039FD41EC180B03F018
:105480005BFC00EE100A9148D0ED090A30EE200ACC
:1054900080ED090A8E48006840F400608C4908607D
:1054A000DDE069468B48FFF7CBFB04469DED000A23
:1054B000B8EE400A854880ED0A0A611CC9B20C4664
:1054C000844A88186946FFF7BBFB044621460A2038
:1054D000FFF7CEFB074603F0A7FE41EC1B0B1FEDC9
:1054E000990B53EC102B03F0B3FE41EC190B9DED1F
:1054F000000AB8EE400A10EE100A04F069F941EC17
:105500001A0B53EC192B03F0F1FC41EC180B03F0D0
:1055100013FC00EE100A6D48D0ED0A0A30EE200AA6
:1055200080ED0A0A6A48006840F400506849086043
:1055300095E069466748FFF783FB04469DED000A46
:10554000B8EE400A614880ED0B0A611CC9B20C46F6
:10555000604A88186946FFF773FB044621460A2013
:10556000FFF786FB074603F05FFE41EC1B0B1FEDC8
:10557000BD0B53EC102B03F06BFE41EC190B9DEDB2
:10558000000AB8EE400A10EE100A04F021F941ECCE
:105590001A0B53EC192B03F0A9FC41EC180B03F088
:1055A000CBFB00EE100A00E01DE04848D0ED0B0AEE
:1055B00030EE200A80ED0B0A4548006840F4805028
:1055C000434908604BE069464248FFF739FB3F49D1
:1055D000009881F830003E48006840F480403C4923
:1055E00008603CE02AE000BF00BF00BF00BF00BF72
:1055F00000BF00BF00BF00BF00BF00BF6946354805
:10560000FFF71EFB0098C2B233480078C01E2F4936
:1056100031310A5431480078401C304908702B4819
:10562000007A0978884208D100202C49087028485F
:10563000006840F400302649086010E069462548BB
:10564000FFF7FEFA2149009881F83D0020480068E4
:1056500040F480301E49086001E0FFE700BF00BF52
:105660001F48007803285DD11B480078012806D127
:1056700069461848FFF7E4FA1A4900980870164876
:105680000078022806D169461248FFF7D9FA164970
:105690000098087010480078042870DB69460D48AF
:1056A000FFF7CEFA0C480078001F10490870087800
:1056B000C11700EB91718910A0EB81010C4A1170A8
:1056C0000A490878C11700EB917113E0788B01202B
:1056D00020410020688B0120184100203441002027
:1056E0001D41002030410020314100203241002086
:1056F000334100208A10F7490978491E02EB8101E5
:10570000F54A117010460078182838DAF348007806
:1057100048B90098C1B21046007800EB4002F0484A
:1057200000F812102BE0ED48007801280AD100980B
:10573000C1B2E948007800EB4002E94800EB4200C2
:1057400041701CE0E548007802280AD1009881B237
:10575000E148007800EB4002E14800EB4200418064
:105760000DE0DE480078032809D10098C1B2DA487C
:10577000007800EB4002DA4800EB4200017100BF04
:10578000FFF7C5BA0146D748007801286FD1D6483F
:105790000078D64A127840EA4210442868D019DCD2
:1057A00009285DD007DC082871D2DFE800F0C2626A
:1057B0002F363D44524B29286CD006DC222870D06D
:1057C00027285DD0282862D174E0422870D0432871
:1057D000F9D195E04C286CD009DCA0F145000728F0
:1057E000E2D2DFE800F08F909192939495005028D8
:1057F00067D006DC4D2872D04E2871D04F28E2D1F8
:1058000066E051286ED06328DDD18BE0B84800688F
:1058100040F00100B64A10608CE0B548006840F0E6
:105820004000B34A106085E0B148006840F00200D3
:10583000AF4A10607EE0AE48006840F02000AC4AFD
:10584000106077E0AA48006840F00400A84A1060A1
:1058500070E0A748006840F00800A54A106069E0C1
:10586000A348006840F01000A14A106062E062E0C6
:1058700047E09F48006840F080009D4A106059E072
:105880009B48006840F48070994A106052E050E0F4
:1058900000E006E09648006840F40070944A10600A
:1058A00048E09348006840F48060914A106041E00D
:1058B0001FE02EE08E48006840F400408C4A1060E3
:1058C00038E08B48006840F40060894A106031E09D
:1058D0008748006840F40050854A10602AE019E0CB
:1058E00019E0FFE78248006840F48050804A106069
:1058F00020E07F48006840F480407D4A106019E055
:1059000000BF00BF00BF00BF00BF00BF00BF00BF9F
:1059100000BF00BF00BF7648006840F40030744A02
:10592000106007E07248006840F48030704A1060F0
:1059300000E000BF00BF70470146302905DB392970
:1059400003DCA1F13000C0B27047412905DB4629D4
:1059500003DCA1F13700C0B2F6E7612905DB662957
:1059600003DCA1F15700C0B2EEE70020ECE770B510
:1059700005460C462846FFF7D1F828B12846FFF720
:105980004BF8012085F8F200242C11D10020594950
:1059900008705949087054490870524908700846FF
:1059A00001780078401C4F4A10705448445486E0F7
:1059B0002C2C1CD15048007860404F4908700021C1
:1059C000484802780078401C464B18704B48815478
:1059D0002846FFF7D7FE2846FFF765F942480078CA
:1059E000401C4149087000203E49087067E00A2CBD
:1059F00013D100203C4908703C48007803285ED150
:105A00003F48007833490978884258D138480068BF
:105A100040F480203649086051E00D2C22D100214D
:105A2000304802780078401C2E4B1870334881545F
:105A300001464878FFF780FF024630490878FFF7B3
:105A40007BFF02EB00102F490870084600782A49B6
:105A50000978884202D02846FEF7DEFF002022495E
:105A600008702CE02A2C1AD101202249087000214C
:105A70001C4802780078401C1A4B18701F4881544B
:105A80002846FFF77FFE2846FFF70DF916480078F5
:105A9000401C154908700020124908700FE0154895
:105AA000007820B9144800786040134908700D4808
:105AB00001780078401C0B4A107010484454284666
:105AC000FFF747F870BD70B504460F48FDF74FFA71
:105AD00078BB29E0314100203241002033410020D1
